{
  "abi": [
    {
      "inputs": [
        {
          "internalType": "uint256",
          "name": "i",
          "type": "uint256"
        }
      ],
      "name": "get",
      "outputs": [
        {
          "internalType": "string",
          "name": "",
          "type": "string"
        }
      ],
      "stateMutability": "view",
      "type": "function"
    }
  ],
  "bytecode": "608060405234801561001057600080fd5b506106f9806100206000396000f3fe608060405234801561001057600080fd5b506004361061002b5760003560e01c80639507d39a14610030575b600080fd5b61004361003e36600461063f565b610059565b6040516100509190610658565b60405180910390f35b6060600060405180604001604052806040516020016100b5907f3c3e7b2f2a205468652064656661756c74206f7074696f6e20697320226e6f2081527030b1b1b2b9b9b7b93c91101517be9e179f60791b602082015260310190565b604051602081830303815290604052815260200160405160200161060d907f3c706174682066696c6c3d22233030302220643d224d3930312e39383520333781527f372e353033632d31352e30303820372e3330382d33352e3934362d332e34372d60208201527f34362e3033372d31342e37362d332e3637332d342e3131312d362e3530372d3160408201527f352e3837322d352e3039342d32332e33333120332e3832372d32302e3230312060608201527f31382e3230372d33322e3332352033332e3338382d33362e3436352032312e3060808201527f34342d352e37342034322e32323220382e3830322033392e3735332032352e3960a08201527f36332d322e3334312031362e3236342d352e3838382033392e3835352d32322e60c08201527f30312034382e3539336d2d3130322e3135312d33382e383034632d312e32303360e08201527f2032322e3031352d31382e36392034312e3238332d33392e35392034362e39396101008201527f332d33332e36373420392e3439392d35302e3331362d31342e3433322d35372e6101208201527f3835342d34302e3231342d2e3734392d322e3536322d322e35312d31302e33386101408201527f3120322e3231352d31372e3038382031382e3538332d32362e3338322036332e6101608201527f3739362d32312e3838352038362e3337382d31342e36343220362e363120362e6101808201527f333920392e3331322031352e36313420382e3835312032342e3935316d3131386101a08201527f2e3435372d33372e3937632d2e30312e3031332d2e3032322e3032342d2e30336101c08201527f322e3033382d2e3037372d2e3034382d2e3135332d2e3039362d2e3233322d2e6101e08201527f3134332e3038372e3033362e3137392e3036382e3236342e3130356d32382e316102008201527f373420322e353435632d312e3935362d32322e3431342d37312e3531392d31336102208201527f2e3833322d37392e3635322d31312e3939352d32322e31393620362e362d34316102408201527f2e3336372032342e3535362d36362e3138332031362e3636332d32352e3731336102608201527f2d32382e3937392d3131322e3330322d32302e3636382d3133302e3435342d356102808201527f2e3930372d332e3433362d312e3336322d372e3631342d2e3633312d31322e306102a08201527f34312e3635352d32322e3733342d2e3833312d3132362e35313820372e3039336102c08201527f2d3130352e32392033362e34323720332e32323220322e32353920362e3434316102e08201527f2d2e303420362e35332d342e363934203131302e3636332d34302e33383720396103008201527f392e3933362d322e353538203131332e30362d362e39373620322e3030342e356103208201527f383320342e3039352e39353220352e39323420312e33342031302e31353820336103408201527f2e3330342031332e36303720322e3238332031342e3934352031332e383132206103608201527f392e3139332038392e303139203132362e3434382035382e323935203131362e6103808201527f3833312d31342e37323320392e3532322d2e35332031372e3835312d342e36396103a08201527f332032372e39322d2e36323820362e3939312036382e3738352036312e3734326103c08201527f2037312e3536312037382e3231392034372e3731372031322e3432352d31362e6103e08201527f353520372e3439382d34312e3532362032342e3537372d35342e35343620362e6104008201527f37343220352e37303420372e3137362d31332e35343720352e3631342d31372e61042082015265189a1a91179f60d11b6104408201526104460190565b6040516020818303038152906040528152509050808360028110610633576106336106ad565b60200201519392505050565b60006020828403121561065157600080fd5b5035919050565b600060208083528351808285015260005b8181101561068557858101830151858201604001528201610669565b81811115610697576000604083870101525b50601f01601f1916929092016040019392505050565b634e487b7160e01b600052603260045260246000fdfea2646970667358221220bee49f65f76baef2da3e66ba4839ffcb96a73e833bf2e92fb195304d333fcc8464736f6c634300080d0033",
  "bytecodeSha1": "1a312bd58f61e1901f0e6823656b5114231abdc6",
  "compiler": {
    "evm_version": "istanbul",
    "optimizer": {
      "enabled": true,
      "runs": 200
    },
    "version": "0.8.13+commit.abaa5c0e"
  },
  "contractName": "Accessory",
  "language": "Solidity",
  "natspec": {
    "kind": "dev",
    "methods": {},
    "version": 1
  },
  "opcodes": "PUSH1 0x80 PUSH1 0x40 MSTORE CALLVALUE DUP1 ISZERO PUSH2 0x10 JUMPI PUSH1 0x0 DUP1 REVERT JUMPDEST POP PUSH1 0x4 CALLDATASIZE LT PUSH2 0x2B JUMPI PUSH1 0x0 CALLDATALOAD PUSH1 0xE0 SHR DUP1 PUSH4 0x9507D39A EQ PUSH2 0x30 JUMPI JUMPDEST PUSH1 0x0 DUP1 REVERT JUMPDEST PUSH2 0x43 PUSH2 0x3E CALLDATASIZE PUSH1 0x4 PUSH2 0x63F JUMP JUMPDEST PUSH2 0x59 JUMP JUMPDEST PUSH1 0x40 MLOAD PUSH2 0x50 SWAP2 SWAP1 PUSH2 0x658 JUMP JUMPDEST PUSH1 0x40 MLOAD DUP1 SWAP2 SUB SWAP1 RETURN JUMPDEST PUSH1 0x60 PUSH1 0x0 PUSH1 0x40 MLOAD DUP1 PUSH1 0x40 ADD PUSH1 0x40 MSTORE DUP1 PUSH1 0x40 MLOAD PUSH1 0x20 ADD PUSH2 0xB5 SWAP1 PUSH32 0x3C3E7B2F2A205468652064656661756C74206F7074696F6E20697320226E6F20 DUP2 MSTORE PUSH17 0x30B1B1B2B9B9B7B93C91101517BE9E179F PUSH1 0x79 SHL PUSH1 0x20 DUP3 ADD MSTORE PUSH1 0x31 ADD SWAP1 JUMP JUMPDEST PUSH1 0x40 MLOAD PUSH1 0x20 DUP2 DUP4 SUB SUB DUP2 MSTORE SWAP1 PUSH1 0x40 MSTORE DUP2 MSTORE PUSH1 0x20 ADD PUSH1 0x40 MLOAD PUSH1 0x20 ADD PUSH2 0x60D SWAP1 PUSH32 0x3C706174682066696C6C3D22233030302220643D224D3930312E393835203337 DUP2 MSTORE PUSH32 0x372E353033632D31352E30303820372E3330382D33352E3934362D332E34372D PUSH1 0x20 DUP3 ADD MSTORE PUSH32 0x34362E3033372D31342E37362D332E3637332D342E3131312D362E3530372D31 PUSH1 0x40 DUP3 ADD MSTORE PUSH32 0x352E3837322D352E3039342D32332E33333120332E3832372D32302E32303120 PUSH1 0x60 DUP3 ADD MSTORE PUSH32 0x31382E3230372D33322E3332352033332E3338382D33362E3436352032312E30 PUSH1 0x80 DUP3 ADD MSTORE PUSH32 0x34342D352E37342034322E32323220382E3830322033392E3735332032352E39 PUSH1 0xA0 DUP3 ADD MSTORE PUSH32 0x36332D322E3334312031362E3236342D352E3838382033392E3835352D32322E PUSH1 0xC0 DUP3 ADD MSTORE PUSH32 0x30312034382E3539336D2D3130322E3135312D33382E383034632D312E323033 PUSH1 0xE0 DUP3 ADD MSTORE PUSH32 0x2032322E3031352D31382E36392034312E3238332D33392E35392034362E3939 PUSH2 0x100 DUP3 ADD MSTORE PUSH32 0x332D33332E36373420392E3439392D35302E3331362D31342E3433322D35372E PUSH2 0x120 DUP3 ADD MSTORE PUSH32 0x3835342D34302E3231342D2E3734392D322E3536322D322E35312D31302E3338 PUSH2 0x140 DUP3 ADD MSTORE PUSH32 0x3120322E3231352D31372E3038382031382E3538332D32362E3338322036332E PUSH2 0x160 DUP3 ADD MSTORE PUSH32 0x3739362D32312E3838352038362E3337382D31342E36343220362E363120362E PUSH2 0x180 DUP3 ADD MSTORE PUSH32 0x333920392E3331322031352E36313420382E3835312032342E3935316D313138 PUSH2 0x1A0 DUP3 ADD MSTORE PUSH32 0x2E3435372D33372E3937632D2E30312E3031332D2E3032322E3032342D2E3033 PUSH2 0x1C0 DUP3 ADD MSTORE PUSH32 0x322E3033382D2E3037372D2E3034382D2E3135332D2E3039362D2E3233322D2E PUSH2 0x1E0 DUP3 ADD MSTORE PUSH32 0x3134332E3038372E3033362E3137392E3036382E3236342E3130356D32382E31 PUSH2 0x200 DUP3 ADD MSTORE PUSH32 0x373420322E353435632D312E3935362D32322E3431342D37312E3531392D3133 PUSH2 0x220 DUP3 ADD MSTORE PUSH32 0x2E3833322D37392E3635322D31312E3939352D32322E31393620362E362D3431 PUSH2 0x240 DUP3 ADD MSTORE PUSH32 0x2E3336372032342E3535362D36362E3138332031362E3636332D32352E373133 PUSH2 0x260 DUP3 ADD MSTORE PUSH32 0x2D32382E3937392D3131322E3330322D32302E3636382D3133302E3435342D35 PUSH2 0x280 DUP3 ADD MSTORE PUSH32 0x2E3930372D332E3433362D312E3336322D372E3631342D2E3633312D31322E30 PUSH2 0x2A0 DUP3 ADD MSTORE PUSH32 0x34312E3635352D32322E3733342D2E3833312D3132362E35313820372E303933 PUSH2 0x2C0 DUP3 ADD MSTORE PUSH32 0x2D3130352E32392033362E34323720332E32323220322E32353920362E343431 PUSH2 0x2E0 DUP3 ADD MSTORE PUSH32 0x2D2E303420362E35332D342E363934203131302E3636332D34302E3338372039 PUSH2 0x300 DUP3 ADD MSTORE PUSH32 0x392E3933362D322E353538203131332E30362D362E39373620322E3030342E35 PUSH2 0x320 DUP3 ADD MSTORE PUSH32 0x383320342E3039352E39353220352E39323420312E33342031302E3135382033 PUSH2 0x340 DUP3 ADD MSTORE PUSH32 0x2E3330342031332E36303720322E3238332031342E3934352031332E38313220 PUSH2 0x360 DUP3 ADD MSTORE PUSH32 0x392E3139332038392E303139203132362E3434382035382E323935203131362E PUSH2 0x380 DUP3 ADD MSTORE PUSH32 0x3833312D31342E37323320392E3532322D2E35332031372E3835312D342E3639 PUSH2 0x3A0 DUP3 ADD MSTORE PUSH32 0x332032372E39322D2E36323820362E3939312036382E3738352036312E373432 PUSH2 0x3C0 DUP3 ADD MSTORE PUSH32 0x2037312E3536312037382E3231392034372E3731372031322E3432352D31362E PUSH2 0x3E0 DUP3 ADD MSTORE PUSH32 0x353520372E3439382D34312E3532362032342E3537372D35342E35343620362E PUSH2 0x400 DUP3 ADD MSTORE PUSH32 0x37343220352E37303420372E3137362D31332E35343720352E3631342D31372E PUSH2 0x420 DUP3 ADD MSTORE PUSH6 0x189A1A91179F PUSH1 0xD1 SHL PUSH2 0x440 DUP3 ADD MSTORE PUSH2 0x446 ADD SWAP1 JUMP JUMPDEST PUSH1 0x40 MLOAD PUSH1 0x20 DUP2 DUP4 SUB SUB DUP2 MSTORE SWAP1 PUSH1 0x40 MSTORE DUP2 MSTORE POP SWAP1 POP DUP1 DUP4 PUSH1 0x2 DUP2 LT PUSH2 0x633 JUMPI PUSH2 0x633 PUSH2 0x6AD JUMP JUMPDEST PUSH1 0x20 MUL ADD MLOAD SWAP4 SWAP3 POP POP POP JUMP JUMPDEST PUSH1 0x0 PUSH1 0x20 DUP3 DUP5 SUB SLT ISZERO PUSH2 0x651 JUMPI PUSH1 0x0 DUP1 REVERT JUMPDEST POP CALLDATALOAD SWAP2 SWAP1 POP JUMP JUMPDEST PUSH1 0x0 PUSH1 0x20 DUP1 DUP4 MSTORE DUP4 MLOAD DUP1 DUP3 DUP6 ADD MSTORE PUSH1 0x0 JUMPDEST DUP2 DUP2 LT ISZERO PUSH2 0x685 JUMPI DUP6 DUP2 ADD DUP4 ADD MLOAD DUP6 DUP3 ADD PUSH1 0x40 ADD MSTORE DUP3 ADD PUSH2 0x669 JUMP JUMPDEST DUP2 DUP2 GT ISZERO PUSH2 0x697 JUMPI PUSH1 0x0 PUSH1 0x40 DUP4 DUP8 ADD ADD MSTORE JUMPDEST POP PUSH1 0x1F ADD PUSH1 0x1F NOT AND SWAP3 SWAP1 SWAP3 ADD PUSH1 0x40 ADD SWAP4 SWAP3 POP POP POP JUMP JUMPDEST PUSH4 0x4E487B71 PUSH1 0xE0 SHL PUSH1 0x0 MSTORE PUSH1 0x32 PUSH1 0x4 MSTORE PUSH1 0x24 PUSH1 0x0 REVERT INVALID LOG2 PUSH5 0x6970667358 0x22 SLT KECCAK256 0xBE 0xE4 SWAP16 PUSH6 0xF76BAEF2DA3E PUSH7 0xBA4839FFCB96A7 RETURNDATACOPY DUP4 EXTCODESIZE CALLCODE 0xE9 0x2F 0xB1 SWAP6 ADDRESS 0x4D CALLER EXTCODEHASH 0xCC DUP5 PUSH5 0x736F6C6343 STOP ADDMOD 0xD STOP CALLER ",
  "sha1": "6116e835ad0a55143f69dd1b75eadd24d1cd73d1",
  "source": "// SPDX-License-Identifier: MIT\npragma solidity ^0.8.4;\n\n\ncontract Accessory {\n    function get(uint256 i) external view returns(string memory){\n        string[2] memory accessories = [\n            string(abi.encodePacked('<>{/* The default option is \"no accessory\" */}</>')),\n            string(abi.encodePacked('<path fill=\"#000\" d=\"M901.985 377.503c-15.008 7.308-35.946-3.47-46.037-14.76-3.673-4.111-6.507-15.872-5.094-23.331 3.827-20.201 18.207-32.325 33.388-36.465 21.044-5.74 42.222 8.802 39.753 25.963-2.341 16.264-5.888 39.855-22.01 48.593m-102.151-38.804c-1.203 22.015-18.69 41.283-39.59 46.993-33.674 9.499-50.316-14.432-57.854-40.214-.749-2.562-2.51-10.381 2.215-17.088 18.583-26.382 63.796-21.885 86.378-14.642 6.61 6.39 9.312 15.614 8.851 24.951m118.457-37.97c-.01.013-.022.024-.032.038-.077-.048-.153-.096-.232-.143.087.036.179.068.264.105m28.174 2.545c-1.956-22.414-71.519-13.832-79.652-11.995-22.196 6.6-41.367 24.556-66.183 16.663-25.713-28.979-112.302-20.668-130.454-5.907-3.436-1.362-7.614-.631-12.041.655-22.734-.831-126.518 7.093-105.29 36.427 3.222 2.259 6.441-.04 6.53-4.694 110.663-40.387 99.936-2.558 113.06-6.976 2.004.583 4.095.952 5.924 1.34 10.158 3.304 13.607 2.283 14.945 13.812 9.193 89.019 126.448 58.295 116.831-14.723 9.522-.53 17.851-4.693 27.92-.628 6.991 68.785 61.742 71.561 78.219 47.717 12.425-16.55 7.498-41.526 24.577-54.546 6.742 5.704 7.176-13.547 5.614-17.145\"/>'))\n        ];\n        return accessories[i];\n    }\n}",
  "sourcePath": "contracts/Accessory.sol",
  "type": "contract"
}