{
  "abi": [
    {
      "inputs": [
        {
          "internalType": "uint256",
          "name": "i",
          "type": "uint256"
        },
        {
          "internalType": "string",
          "name": "skinColor",
          "type": "string"
        }
      ],
      "name": "get",
      "outputs": [
        {
          "internalType": "string",
          "name": "",
          "type": "string"
        }
      ],
      "stateMutability": "view",
      "type": "function"
    }
  ],
  "bytecode": "608060405234801561001057600080fd5b506101c4806100206000396000f3fe608060405234801561001057600080fd5b506004361061002b5760003560e01c8063805da4ad14610030575b600080fd5b61005261003e36600461007e565b505060408051602081019091526000815290565b60405161005f9190610139565b60405180910390f35b634e487b7160e01b600052604160045260246000fd5b6000806040838503121561009157600080fd5b82359150602083013567ffffffffffffffff808211156100b057600080fd5b818501915085601f8301126100c457600080fd5b8135818111156100d6576100d6610068565b604051601f8201601f19908116603f011681019083821181831017156100fe576100fe610068565b8160405282815288602084870101111561011757600080fd5b8260208601602083013760006020848301015280955050505050509250929050565b600060208083528351808285015260005b818110156101665785810183015185820160400152820161014a565b81811115610178576000604083870101525b50601f01601f191692909201604001939250505056fea2646970667358221220b667750c6a8ae84eb4469bab7112ccc8398ae24c7206f3377820cac65c193edf64736f6c634300080d0033",
  "bytecodeSha1": "edcafa40489098c7a0aea726e992d66954f815db",
  "compiler": {
    "evm_version": "istanbul",
    "optimizer": {
      "enabled": true,
      "runs": 200
    },
    "version": "0.8.13+commit.abaa5c0e"
  },
  "contractName": "Body",
  "language": "Solidity",
  "natspec": {
    "kind": "dev",
    "methods": {},
    "version": 1
  },
  "opcodes": "PUSH1 0x80 PUSH1 0x40 MSTORE CALLVALUE DUP1 ISZERO PUSH2 0x10 JUMPI PUSH1 0x0 DUP1 REVERT JUMPDEST POP PUSH1 0x4 CALLDATASIZE LT PUSH2 0x2B JUMPI PUSH1 0x0 CALLDATALOAD PUSH1 0xE0 SHR DUP1 PUSH4 0x805DA4AD EQ PUSH2 0x30 JUMPI JUMPDEST PUSH1 0x0 DUP1 REVERT JUMPDEST PUSH2 0x52 PUSH2 0x3E CALLDATASIZE PUSH1 0x4 PUSH2 0x7E JUMP JUMPDEST POP POP PUSH1 0x40 DUP1 MLOAD PUSH1 0x20 DUP2 ADD SWAP1 SWAP2 MSTORE PUSH1 0x0 DUP2 MSTORE SWAP1 JUMP JUMPDEST PUSH1 0x40 MLOAD PUSH2 0x5F SWAP2 SWAP1 PUSH2 0x139 JUMP JUMPDEST PUSH1 0x40 MLOAD DUP1 SWAP2 SUB SWAP1 RETURN JUMPDEST PUSH4 0x4E487B71 PUSH1 0xE0 SHL PUSH1 0x0 MSTORE PUSH1 0x41 PUSH1 0x4 MSTORE PUSH1 0x24 PUSH1 0x0 REVERT JUMPDEST PUSH1 0x0 DUP1 PUSH1 0x40 DUP4 DUP6 SUB SLT ISZERO PUSH2 0x91 JUMPI PUSH1 0x0 DUP1 REVERT JUMPDEST DUP3 CALLDATALOAD SWAP2 POP PUSH1 0x20 DUP4 ADD CALLDATALOAD PUSH8 0xFFFFFFFFFFFFFFFF DUP1 DUP3 GT ISZERO PUSH2 0xB0 JUMPI PUSH1 0x0 DUP1 REVERT JUMPDEST DUP2 DUP6 ADD SWAP2 POP DUP6 PUSH1 0x1F DUP4 ADD SLT PUSH2 0xC4 JUMPI PUSH1 0x0 DUP1 REVERT JUMPDEST DUP2 CALLDATALOAD DUP2 DUP2 GT ISZERO PUSH2 0xD6 JUMPI PUSH2 0xD6 PUSH2 0x68 JUMP JUMPDEST PUSH1 0x40 MLOAD PUSH1 0x1F DUP3 ADD PUSH1 0x1F NOT SWAP1 DUP2 AND PUSH1 0x3F ADD AND DUP2 ADD SWAP1 DUP4 DUP3 GT DUP2 DUP4 LT OR ISZERO PUSH2 0xFE JUMPI PUSH2 0xFE PUSH2 0x68 JUMP JUMPDEST DUP2 PUSH1 0x40 MSTORE DUP3 DUP2 MSTORE DUP9 PUSH1 0x20 DUP5 DUP8 ADD ADD GT ISZERO PUSH2 0x117 JUMPI PUSH1 0x0 DUP1 REVERT JUMPDEST DUP3 PUSH1 0x20 DUP7 ADD PUSH1 0x20 DUP4 ADD CALLDATACOPY PUSH1 0x0 PUSH1 0x20 DUP5 DUP4 ADD ADD MSTORE DUP1 SWAP6 POP POP POP POP POP POP SWAP3 POP SWAP3 SWAP1 POP JUMP JUMPDEST PUSH1 0x0 PUSH1 0x20 DUP1 DUP4 MSTORE DUP4 MLOAD DUP1 DUP3 DUP6 ADD MSTORE PUSH1 0x0 JUMPDEST DUP2 DUP2 LT ISZERO PUSH2 0x166 JUMPI DUP6 DUP2 ADD DUP4 ADD MLOAD DUP6 DUP3 ADD PUSH1 0x40 ADD MSTORE DUP3 ADD PUSH2 0x14A JUMP JUMPDEST DUP2 DUP2 GT ISZERO PUSH2 0x178 JUMPI PUSH1 0x0 PUSH1 0x40 DUP4 DUP8 ADD ADD MSTORE JUMPDEST POP PUSH1 0x1F ADD PUSH1 0x1F NOT AND SWAP3 SWAP1 SWAP3 ADD PUSH1 0x40 ADD SWAP4 SWAP3 POP POP POP JUMP INVALID LOG2 PUSH5 0x6970667358 0x22 SLT KECCAK256 0xB6 PUSH8 0x750C6A8AE84EB446 SWAP12 0xAB PUSH18 0x12CCC8398AE24C7206F3377820CAC65C193E 0xDF PUSH5 0x736F6C6343 STOP ADDMOD 0xD STOP CALLER ",
  "sha1": "a2a3b2b8f1cb1a15e377534ddc840a2ce870438d",
  "source": "// SPDX-License-Identifier: MIT\npragma solidity ^0.8.4;\n\ncontract Body {\n    function get(uint256 i, string memory skinColor) external view returns(string memory) {\n        // string[2] memory bodies = [\n        //     string(abi.encodePacked('<path fill=\"',skinColor,'\" d=\"M1136.92 1505.63c26.34.59 15.04-245.63-2.54-291.01-2.47-9.19-4.5-21.76-4.09-33.04 21.75 2.18 19.41-12.74 18.29-30.73.37-14.28 1.36-43.75-20.46-32.28-65.41-131.209 5.31-470.388-166.899-502.334-20.751-5.05-42.199-10.276-59.67-24.693-18.487-34.243-27.903-38.617-58.537-40.832-5.672-30.844-16.275-63.795-47.872-75.798-28.929-11.359-62.598-12.265-92.763-6.203-24.967 8.16-27.251 54.662-32.797 77.59-33.627-8.935-75.069-27.728-93.173 14.873-8.768-2.626-16.893-.921-25.803 2.002-74.679 12.057-147.134 45.909-174.833 116.543-17.109 42.387-4.967 88.528 1.45 132.426 5.984 47.802-9.796 92.087-17.111 138.065-10.892 63.311-12.861 114.101-5.754 161.161-18.786 4.28-20.172 21.4-12.571 39.32 2.232 6.06 4.48 12.46 9.415 15.88 10.04 6.34 23.016-.96 33.927-2.08 2.27 25.28 6.665 50.09 13.936 78.29-2.106 8.44-4.521 17.86-6.69 26.34l-.732-.8c-24.91 104.55-98.996 206.11-75.97 317.23 1.354 3.7 3.923 2.93 5.896 2.86 11.43 4.36 21.929 1.59 33.456 2.04 27.341.02 53.755 3.53 78.259 6.58 4.479 29.32 19.042 77.32 45.012 88.5.437.15 8.135-1.46 8.779-1.5-69.136 280.9-193.531 540.64-242.943 827.2-.293 3.5 5.386 1.65 7.249 2.07-.255 7.96 4.872 9.87 12.052 12.7-9.252 19.38-17.586 38.73-26.797 58.17-4.27 9.61-11.231 19.11-12.499 29.4-10.196 6.52-17.064 19.29-16.882 31.2-27.496 11.65-20.023 69.17-26.296 97.65-6.343 42.45-36.514 72.08-57.202 106.88-4.215 6.99-8.705 16.14-8.904 24.91-12.825 6.03-17.607 19.19-16.758 41.34-.046 25.91 7.25 35.78 26.922 36.41 53.433 5.35 115.784 3.17 169.527-2.91 40.204-5.13 75.83-.88 66.842-49.28-1.85-11.72 1.703-27.5-5.219-36.98-4.267-28.24-1.784-56.69 7.418-84.58 5.594-23.49 15.046-72 11.13-103.51-1.812-14.58-31.508-22.6-36.735-23.31 1.663-10.97.931-30.15-4.961-37.77 10.819-1.52 13.539-4.38 15.792-16.42 5.385-19.5 6.101-40.68 19.436-57.11 23.984.31 47.887-5.79 71.857-6.53l1.193-2.76c14.178-.18 28.276-2.69 41.733-7.61 2.984 1.42 6.801 2.63 8.478-1.9l8.005-25.08c93.185-297.15 196.475-595.01 297.188-889.98 5.879-14.34 12.949-29.58 22.143-42.36 3.114 180.48 40.845 360.77 44.085 541.16 4.379 124.1 3.252 246.89 14.901 371.43 2.999 26.36 6.186 25.48 10.112 23.86 1.574.25 5.276 1.04 6.883 1.38-2.626 26.19-5.648 68.71-16.857 95.5-24.778 3.83-20.34 22.88-14.845 38.67-5.911 5.06-5.07 16.85-3.316 23.38-23.313.02-28.396 19.02-26.792 31.01 2.218 20.06.977 51.26 14.33 68.39 7.864 21.83 20.664 42.44 25.664 65.97 3.142 17.31 1.929 42.53 4.959 59.7-7.624 3.53-4.394 9.06-5.679 19.76-6.6 49 16.63 40.67 57.704 44.05 24.619 5.44 212.037 16.28 203.947-16.32 1.38-13.27-4.78-19.1-7.42-32.17-1.19-3.47-24.54-43.61-38.47-58.81-46.71-43.98-44.67-103.02-43.19-171.03-2.75-18.44-16.9-36.09-34.95-34.1 5.18-19.69-4.43-36.81-24.51-42.5 2.006-22.29 4.118-52.58 11.461-71.86l-6.916-7.05 9.258 1.1 3.077-7.75 3.35 8.5c15.89 0 33.83-3.54 49.05-5.2 2.43.14 1.35-3.17 1.75-4.45 14.37-2.98 15.95-10.64 13.41-28.88 3.35-296.16 1.89-589.55-2.68-886.27 22.47 1 44.38-7.21 66.46-12.68 7.84 4.93 10.07-12.64 9.15-16.43-1.25-19.63-3.67-38.78-5.85-56.6z\"/><path fill=\"',skinColor,'\" stroke=\"#22252B\" d=\"M924.655 1278.35s20.584 143.69 31.327 198.96c.224 1.15 2.331 2.36 3.995 2.06l.17-.04 2.258-.55 3.766 1.41 3.152 1.17 26.731 9.87 7.346 2.73c24.98 9.33 39.31 15.16 55.55 22.73l9.76 4.58-4.94 7.27a.62.62 0 0 0-.1.2l-.04.1-.02.06.29.79c4.65 12.9 5.49 24.4 4.58 44.22l-.08 1.7-.2 4.1-.16 3.21-.01.27c-.01.72-.06 1.37-.16 2.23l-.04.38-.28 2.17-.08.64c-.01.13-.02.25-.03.35l-.02.3v.3l1.75 1.96-.2 3.14c-.67 10.33-8.24 850.99-3.07 891.63l.16 1.07.1.58.01.58c.03 1.56-.15 2.97-.52 4.67l-.14.65-.42 1.76c-.1.42-.16.72-.2.95l-.03.19-.03.24.55 1.3-.29 4.8-.05.87c-.03.56-.05 1.08-.06 1.58l-.16 7.29-9.39.55c-16.17.93-30.34 1.38-55.03 1.81l-2.9.05-27.35.43c-27.56.46-45.628 1.05-63.98 2.26l-6.061.42-2.369-2.15c-.135-.13-.508-.21-.739-.17l-.089.03-11.424 4.55 1.247-12.91-.44-.09.859-7.16.073-.69c.454-4.62.24-9.36-.587-17.43l-.528-5.07c-.5-4.92-.735-7.92-.815-11.03l-.008-.33-.022-1.34-.361-4.98c-3.641-50.58-16.425-376.46-16.425-376.46-2.427-45.85-49.658-492.43-49.658-492.43l-.184-7.49-.077-2.65-.769 1.31-.917 1.58-1.166 2.03c-13.545 23.64-24.829 47.53-30.132 65.72l-.307 1.07-2.99 7.98C689.1 1909.2 599.442 2169.4 491.637 2498.95l-7.638 23.37-2.97 1.38c-20.299 9.37-41.498 11.23-70.594 8.32l-.962-.1-1.92-.2c-3.329-.37-6.331-.73-10.275-1.24l-2.629-.34-13.352-1.79c-5.092-.68-8.422-1.1-11.763-1.47l-2.708-.29-3.933-.38-3.209-.3c-40.452-3.77-73.54-4.44-105.013-1.39l-1.241.12-7.223.74-1.763-6.68c-.343-1.41-.52-2.89-.549-4.45l-.004-.59.009-.7.55-2.81c13.54-68.69 110.279-394.59 110.279-394.59 10.951-35.55 58.322-187.82 73.849-238.25l1.77-5.76 2.201-7.19c22.743-74.43 35-117.65 38.084-135.45l.178-1.06.046-.29.068-.28 1.864-7.84.83-1.18c2.299-3.26 3.407-7.05 4.087-13.46l.107-1.07.093-1.03 1.219-14.96 10.802 7.86.841.6c7.081 5.02 12.414 7 15.734 6.6l.226-.04-.008-.05 14.479-3.69 1.153 3.28.584 1.64c1.28 3.47 3.902 5.81 6.163 6.18 1.451.23 2.609-.44 3.657-3.15l.102-.27.05-.14.065-.34.166-.89c1.825-10.12 1.924-19.55.902-37.45l-.093-1.6-.453-7.5c-.729-12.5-.892-19.18-.487-26.86l.074-1.32 3.921-65.27 13.39 78.75 5.151 30.09.801 4.84.21 1.23c2.711 15.59 6.007 23.93 12.441 28.05l.336.21-.011-2.51-.034-4.96c-.022-2.52-.049-5.09-.083-7.74l-.096-6.81-.105-6.35-1.056-53.23 13.777 9.97.353.25c.591.41 1.106.74 1.543 1l.261.15.354-.57c7.396-12.2 8.966-25.82 5.554-41.64l-.154-.7-.151-.67c-3.09-13.33-8.963-26.67-19.443-45.89l-.479-.87-1.546-2.81-4.623-8.3-3.278-5.89-1.345-2.45c-.853-1.56-1.626-3-2.361-4.38l-.274-.52-5.456-10.37 10.695-1.39c6.936-.89-5.024-115.89 74.624-167.82 88.071-57.42 288.657-65.65 288.657-65.65z\"/><path fill=\"hsl(180deg, 45%, 75%)\" d=\"M395.59 1237.84c4.617 16.32 9.784 40.51 15.196 56.63 9.73 44.65 17.029 89.99 21.807 135.45 1.599 15.19 2.85 30.39 4.685 45.51-1.866 9.84 1.969 37.8-.277 47.57-38.905 7.23-93.259 38.07-124.444 62.68-10.033-82.59 36.001-175.09 55.698-253.11 1.306-5.01 2.609-10.07 3.858-15.17 5.629-15.87 16.657-55.75 20.563-71.71l.525-2.17.732.79 1.657-6.47zm503.168-648.864c4.376 2.752 8.929 5.077 13.601 7.09 36.36 20.948 100.191 21.587 122.171 62.6 56.76 118.288 58.53 318.447 90.47 459.334 1.76 7.77 18.21-.54 20 7 4.44 18.72-.19 36.71 5 53.67-20.25 5.23-72.8 8.66-93 14 5 17.33 58.95 157.58 80.35 357.51-7.75-1.75-15.31-4.27-22.72-7.17l-2.84-1.23c-41.64-18.16-107.1-46.4-152.296-53.68-28.624-174.58-54.782-360.06-58.044-538.35l-.138-8.229c-.966-52.741-7.418-105.009-15.525-157.054l-.446-3.66c-4.393-36.245-8.128-74 .385-109.79 2.755.841-5.136-18.42-8.725-43.017-2.222-15.235 3.938-32.847-5-48-12.41-21.045-29.298 5.864-28 0 .653-2.948-16.392-38.765-10-35 6.977 4.108 33 4 43 14 21.852 21.851 25.835 38.471 22.097 30.679l-.34-.703zm-371.707-16.804c9.094-1.776 35.477-10.681 44.95-10.172-5.551 11.881 8-41 51-29 1.882.525 46.184 7.29 46 16-.12 5.841-48.854 12.742-53 20-4.869 8.525 3.421 34.174 0 43-10.276 26.511-5.419 33.846-2.323 31.013 2.454 3.799 2.795 9.197 3.291 14.236l.56 5.462c9.032 86.196 27.769 171.084 34.596 257.538 9.872 96.731-11.472 192.231-18.345 288.311-5.61 86.56 1.98 179.31-1.084 265.87-.417 4.8-1.909 11.31-4.932 15.54l-.298.4-.031.01-1.196.24c-21.926 4.43-54.643 18.25-77.204 18.13-21.05-40.98-43.867-145.77-37.034-216.75 5.081-52.77 12-121 12-134 0-23.51-136 13-176 8-13.161-1.65-13.785-16.67-15.237-41.14-.415-6.97 15.043-10.12 15.237-17.86 1.409-56.08 1.266-131.031 1.936-135.438 5.674-43.896 20.236-86.515 22.199-130.859.654-44.758-17.954-88.489-10.439-133.372 10.933-65.366 69.159-110.734 129.511-127.347 11.79-3.605 23.786-5.465 35.843-7.812z\"/><path fill=\"#fff\" d=\"m994.959 2602.97.858.46.21.14c4.423 2.79 7.413 7.67 11.593 16.85l2.34 5.26 4 1.08c15.42 4.18 26.91 14.27 37.3 37.83l.32.72.31.73c3.5 8.14 4.82 17.14 4.5 27.75l-.03.8-.04 1.13c-.28 6.34-.91 11.56-2.62 22.63l-1.24 7.96-.35 2.32c-2.15 14.08-2.9 21.98-2.69 30.87.17 6.98 1.06 13.39 2.79 19.43 7.05 24.6 20.84 50.23 38.62 74.86 6.15 8.51 34.11 55.99 34.35 56.99l.49 2 .46 1.94c.08.31.15.63.23.94l.57 2.49.36 1.57c1.21 5.43 2.11 10.07 2.66 13.95l.07.53c1 7.3.96 11.62-1.5 15.11l-.16.23-.41.55-.49.46-.31.27-.31.27-.93.77-1.12.44c-3.95 1.54-17.68 5.43-32.09 8.49-23.4 4.95-47.71 7.86-71.74 7.71-7.05-.04-14.38-.31-21.972-.78-20.513-1.27-42.202-3.97-65.157-7.79l-3.993-.68-4.214-.74c-14.926-2.67-36.374-6.87-40.235-7.57l-.366-.07h-.151c-8.848-.28-14.532-6.22-16.678-15.22l-.092-.4-.086-.39c-1.429-6.76-1.077-15.37.647-25.02 1.442-8.07 4.878-53.57 4.878-53.57l-12.883-42.95s-27.209-123.63-22.917-140.2l.097-.36c.577-2.05 24.873-16.69 26.163-19.76 1.311-3.11-1.824-38.98-.508-42.66l.128-.33.121-.31.055-.12c1.351-3.04 14.175-15.86 49.204-17.58 13.283-.65 39.208-2.56 56 0 15.645 2.38 22.526 9.15 25.958 10.97zm-678.697 22.96 1.723.4.362-.2c3.041-1.68 5.664-2.58 8.98-2.41 4.426.21 8.363 2.53 11.588 6.67 1.902 2.44 1.044 22.41 1.024 23.37l-.004.25-.001.45.001.13.086.06c1.305.88 4.105 1.44 9.645 1.75l1.261.07 2.633.11c4.552.22 6.891.44 9.588 1.02l.281.06c4.948 1.08 8.882 3.18 11.616 6.9 4.371 5.95 5.207 14.28 3.944 24.92-.439 3.71-29.668 113.29-31.732 122.69-3.125 14.23 2.859 89.6 3.511 96.6.784 8.43.924 16.02.257 22.11-.955 8.74-3.428 14.85-9.208 17.59l-.313.14-.673.3-1.819.41-1.147.25c-11.832 2.53-23.152 3.84-42.03 5.23l-14.409 1.03-3.157.23c-4.373.34-7.696.62-11.042.96l-2.958.31-.114.01c-49.768 3.86-110.368 4.24-154.082.45l-2.566-.23-1.914-.06c-6.976-.27-11.317-4.98-13.599-12.03l-.116-.37-.113-.37c-1.277-4.3-1.9-9.39-2.216-16.25l-.11-2.79c-.019-.56-.036-1.14-.054-1.81l-.175-7.13-.05-1.56c-.034-.95-.07-1.74-.114-2.47l-.056-.84-.2-1.28c-1.346-8.78 79.266-115.29 83.67-127.15 5.367-14.46 14.061-126.01 17.811-130.46l.123-.15 11.406-12.89 1.662 17 .012-.02a8.52 8.52 0 0 0 .595-1.67l.054-.26.039-.24.015-.12.02-.11c2.016-12.13 8.404-21.29 18.398-27.28 8.395-5.04 19.051-7.7 31.66-8.44 18.343-1.08 38.706 1.74 62.007 7.12z\"/><path fill=\"#000\" d=\"M675.466 505c3.34 2.642 2.991 9.966 3.319 14.066l.023.268c1.052 12.385-.37 24.827-3.384 36.851l-.255 1.001c-1.518 5.9-2.861 13.275-7.586 17.409-5.117 4.477-13.246 1.579-13.432-5.641-.092-3.355 1.025-6.585 2.44-9.732-9.914 3.832-19.828 7.624-29.784 11.322-6.359 52.692 67.107 117.204 109.64 139.789 61.941 34.354 114.058-18.266 121.986-80.125 1.333-8.216 2.225-16.661 2.399-24.992.144-6.959-1.27-16.671 3.385-22.623-3.297-.078-6.226.386-9.454.893l.155.269c1.83 3.276 4.415 11.43-1.375 12.051-12.503-1.319-18.318-23.279-21.366-33.812-1.982-7.17-4.715-36.931 1.333-40.437 1.822 7.069 1.106 14.745 3.322 21.834 5.045 2.036 14.65 2.587 16.875 2.962 25.981.301 40.712 18.988 51.242 40.862 30.871 25.387 75.244 21.024 108.581 41.932 102 74.086 68.69 362.502 119.5 485.203 10.17-4.22 20.54 4.22 21.9 14.53 1.4 7.93.98 16.41 1.09 24.44l.05 1c.83 16.43 3.67 34.88-18.47 35.24.04 9.17 1.76 18.05 3.97 26.9 12.26 53.56 17.61 108.74 18.81 163.66l.06 4.03c.4 28.87.75 118.16-15.81 128.73l.78 6.29c1.91 15.73 3.72 31.5 4.73 47.31 1.59 8.2-3.82 27.87-14.86 22.66-20.24 5.01-40.19 12.41-61.22 12.45 5.09 169.85 2.56 339.87 3.31 509.79-1.62 125.25 5.14 251.54-.77 376.31l.21 1.76c1.67 14.01 2.17 26.19-13.99 30.99-.23 3.43-2.87 5.26-5.99 5.66-8.86 1.2-17.72 2.33-26.58 3.42-8.27.62-17.1 2.67-25.34 1.69.8.81-1.36.93-1.6.35-7.505 18.87-9.683 39.44-11.542 59.58 18.222 6.96 28.162 22.61 25.192 42.23 18.38.75 31.81 21.22 34.39 38.47 1.65 11.9.32 23.72-.21 35.65-2.54 40.75 3.44 84.65 29.69 117.15l1.1 1.3c16.88 19.9 38.29 38.13 45.57 64.13 2.02.95 3.68 2.78 4.41 5.63l4.72 18.55 2.34 9.28c1.72 6.76 3.25 13.68 2.33 20.68l-.1.68c-4.6 44.34-186.035 22.97-221.446 19.78-14.236-2.23-29.854-1.01-42.671-8.57-15.721-10.39-17.688-31.48-14.989-48.75l.224-1.62c1.093-7.73 2.693-15.82 10.008-20.14-2.463-16.01-1.51-32.38-4.439-48.33-4.424-22.55-17.806-42.13-24.638-63.78-9.965-11.11-10.301-28.41-12.385-42.61-1.579-13.78-2.87-27.64-3.403-41.5-1.446-18.32 6.488-33.42 25.713-35.82-.892-3.47 1.549-6.47 3.978-8.69-5.731-20.39-7.313-48.39 17.552-55.35 9.417-23.4 12.156-48.76 14.661-73.71-.297-.06-.594-.12-.892-.17-12.385 5.17-14.961-19.31-15.789-28.89-11.724-124.2-10.645-249.12-15.048-373.7l-.431-9c-3.86-82.08-6.157-164.89-20.325-245.87-14.258-90.26-17.986-182-22.86-273.21-5.74 8.94-8.827 19.2-13.473 28.73-60.281 177.44-122.131 354.35-181.726 532.04-43.194 128.65-84.461 257.98-125.851 387.23-2.112 6.62-8.766 7.99-13.636 5.87-12.396 4.31-25.406 6.75-38.498 7.17-.789 1.82-2.409 3.15-4.778 2.89-7.002-.77-15.061 1.43-22.063 2.25-16.023 1.58-31.577 4.04-47.746 4.28-10.017 12.68-10.648 29.89-15.265 44.99-2.659 7.7-2.242 24.97-11.423 27.13 3.291 5.08 3.722 11.18 3.189 17.47 2.855.65 5.751 1.87 8.438 3.13 2.616 1.33 6.071 1.22 7.875 3.89 51.28 9.31 13.805 106.88 4.891 139.15-8.748 26.38-11.488 53.93-7.496 81.47 6.103 8.45 4.058 21.01 4.992 31.02.493 8.93 1.395 18 1.314 26.94-.996 37.16-46.773 31.11-72.6 35.93-16.127 1.88-32.326 3.19-48.525 4.21-41.084 2.56-82.399 2.75-123.399-1.23-26.472-.84-32.164-18.14-32.122-41.8l-.04-.98c-.597-16.07 1.988-35.46 17.213-43.81.759-8.49 5.055-17.06 9.442-24.48 20.401-34.36 51.031-64.48 57.055-105.72 5.91-27-.786-86.43 26.606-100.5.635-12.16 8.089-24.55 17.317-31.13 1.781-10.12 8.491-19.43 12.641-28.74 8.467-17.76 16.299-35.81 24.72-53.6-4.409-1.86-9.095-5.3-9.71-10.18-4.234.05-8.417-2.7-7.905-7.86 1.496-14.99 4.769-29.72 7.859-44.45l.386-1.84c54.988-266.33 168.54-515.38 234.977-778.3-8.939 1.62-17.296-8.62-22.238-15.29-15.963-21.54-25.391-47.59-29.537-74.03l-7.504-.93c-25.024-3.08-50.17-5.78-75.403-5.05l-6.081.2c-6.757.21-13.524.15-19.946-2.28-4.48.41-9.145-2-10.251-7.03-18.69-93.33 27.248-181.89 60.15-266.22 7.751-20.73 13.267-41.77 18.528-63.24.173-.69 1.26-.55 1.229.17-1.025 23.87-6.931 47.94-12.929 70.94-19.697 78.02-60.731 154.52-50.698 237.11 31.185-24.61 68.223-41.7 107.129-48.93 2.245-9.77 4.726-19.48 6.592-29.31-1.835-15.13-3.086-30.32-4.685-45.52a1252.1 1252.1 0 0 0-21.807-135.45c-15.093-44.93-28.271-90.47-32.983-137.85l-.858.17c-10.465 2.13-21.994 6.75-31.703.07-6.163-4.28-8.829-11.37-11.319-18.19-7.111-16.52-8.427-38.23 11.697-45.14-7.502-52.53-2.627-107.36 6.439-159.394 7.262-45.61 23.189-90.545 17.226-137.237-6.62-44.868-18.961-91.861-1.119-135.781 29.321-73.299 103.575-108.075 176.6-119.268l1.183-.348c9.034-2.68 17.26-5.505 26.673-3.474 22.202-41.28 58.209-24.491 93.37-15.29 2.374-7 4.353-14.161 6.213-21.316 1.159-3.645.776-12.054 4.819-13.222zM878.98 2905.61l-.092 1.8c-.93 19.33.118 35.89 24.032 35.76 16.456 1.76 32.914 3.48 49.397 4.97l6.182.55c48.921 4.37 98.431 6.51 147.251-.06l2.04-.27c4.08-.59 11.63-.47 14.86-3.49 3.9-5.26-.61-15.27-1.56-21.36-76.18-.89-152.465-3.7-228.7-2.73-8.018.04-11.637-6.83-10.899-13.08a16.58 16.58 0 0 1-2.511-2.09zm-773.505-9.69c-3.746 13.2-2.823 25.67-.707 38.89 1.058 13.84 7.629 14.73 19.52 15.05 46.42 4.29 93.176 3.39 139.609-.2 24.886-2.69 50.461-2.59 74.885-8.11 11.652-5.17 4.925-21.44 5.321-31.42-54.85 35.42-137.805 30.92-197.618 10.43l-.959-.41c-14.148-5.96-32.236-9.71-40.051-24.23zm90.858-238.31c-6.562 7.41-6.438 29.09-6.735 35.1-.708 14.52-.596 29.06-1.223 43.57.462 61.11-34.754 91.58-60.908 140.72-7.153 11.92 3.254 13.61 11.718 17.48 54.811 25.56 119.645 29.46 176.907 9.9 28.783-8.39 22.498-27.8 20.055-51.54-2.406-48.51 23.069-92.22 30.605-139.14l.273-1.65c2.254-14.07 5.834-48.58-15.848-41.11-4.767 2.94-9.247-.74-9.811-5.25-.567.09-1.151.14-1.712.15-2.533 15.69-5.158 31.35-7.68 47.04 2.123 1.35 4.112 2.87 5.875 4.62 2.143 2.13.646 6.59-2.584 6.32a47.995 47.995 0 0 1-4.931-.7c-1.293 13.63-22.902 5.98-16.66-4.95-31.072-10.75-65.303-9.9-96.856-1.65l-.131.06c-2.443.97-20.006 4.5-14.356 7.24 2.355.29-3.007 3.38-3.948-1.4-.303-5.99 13.349-8.94 17.532-11.42-10.55-15.13-17.758-34.74-19.582-53.39zm796.009-47.91c-29.269-15.88-65.24-9.99-96.989-7.18l-1.333.15c-8.08.87-19.34 1.41-23.049 9.75-5.369 13.36 3.531 43.25 6.327 58.11l1.268 5.19c2.2 9.08 4.239 18.1 4.996 27.49.021.31-.276.53-.553.53-11.121-11.91-16.119-27.92-21.314-43.19-2.216 1.26-4.379 2.63-6.419 4.14-7.97 27.45-10.638 56.67-4.328 84.67l.227.98c7.796 34.6 32.069 62.9 34.376 99.06 1.542 14.61 1.198 29.59 5.393 43.79 2.387.53 4.468 2.29 5.403 4.51l13.684.01c66.138.12 132.299.72 198.389 3.45-2.13-18.63-18.53-35.15-30.09-47.92-35.45-36.39-50.79-88.65-44.95-139.02 3.08-25.2 17.11-64.8-17.22-74.11-2.51 20.54-5.9 41.01-7.77 61.63 6.48 3.13 6.08 11.39-1.84 11.23-3.55 11.98-15.463 7.14-14.176-4.17-43.571-16.12-68.569-21.53-111.016 2.77-1.188-.18 3.261-4.95 3.824-5.8 13.414-14.49 34.016-21.31 53.345-21.55 19.159-.01 37.177 7.23 55.251 12.83 2.717-19.46 4.547-39.04 6.702-58.56l.46-4.18c1.13-10.26.72-18.72-8.598-24.61zm-700.209 251.26c6.377-1.43 12.241-3.59 18.721-2.12 22.802 17.16-70.366 22-78.299 20.78-20.194-.59-40.397-3.16-59.832-8.88l-1.495-.44c-2.563-.72-21.071-5.95-17.473-8.32 26.287 2.34 52.02 7.17 78.8 5.92 13.359-.28 26.77-1.23 39.985-3.25 6.572-1 13.113-2.23 19.593-3.69zm615.974-21.27c-4.175-6.27 16.177 2.06 18.824 2.13 16.853 4.17 34.004 7.32 51.314 8.64 11.606.88 23.335 1.07 34.965.49 8.61-.29 17.12-1.57 25.68-2.45l.31-.01c5.08-.18 15.27 2.98 8.99 9.04-9.76 7.59-24.21 5.28-35.91 6.39-35.527-.12-73.15-5.85-104.173-24.23zm-667.964-45.56c10.243-1.86 66.621-2.47 61.002 14.87-1.364 3.29-4.481 4.38-7.761 3.87-34.894-8.51-72.533-12.96-107.314-1.23-.564.2-.953-.73-.4-.98 17.101-8.59 35.399-14.59 54.473-16.53zm731.807-16.96c9.204-.7 18.464-.45 27.674.24l2.996.24c4.13.32 8.38.7 12.34 1.91l.74.23c5.06 1.64 16.45 10.34 7.8 14.53-9.29 3.02-17.14-.57-26.103-2.88-24.978-5.93-51.234-3.92-75.982 2.15l3.486 1.12c.215-.16.492.21.287.38-2.501 2.19-5.936 1.41-7.71-1.31-.307-.46-.113-1.21.38-1.47 16.773-8.82 35.268-13.7 54.092-15.14zm-777.955-2.21c28.209-12.51 60.892-13.89 91.145-10.27l2.155.27c9.438 1.11 21.747 1.62 27.148 10.43 1.866 3.05-.062 6.55-3.076 7.65-8.879 3.25-19.316-3.26-27.846-5.68-25.222-6.92-52.16-7.65-77.807-2.87.179.95-4.068.54-4.993.88-1.159-.07-8.853 2.48-6.726-.41zm711.365-19.54c24.609-11.99 53.062-14.85 79.631-8.66l1.105.32c11.772 3.31 30.724 7.22 34.944 19.71.91 2.81-1.07 6.61-4.03 7.18-10.04 1.93-19.152-5.42-28.235-8.95-26.726-10.07-56.978-12.47-84.615-5.07-.184 1.09-.369 2.17-.564 3.26.472-.31.964.39.585.77-4.411 3.1-8.999-4.72 1.179-8.56zm-647.953-21.08c19.913-1.33 39.992 1.21 59.215 6.47l3.615 1c5.254 1.48 12.06 3.8 12.824 9.49.297 2.26-.266 3.82-2.102 5.22-6.692 5.02-21.247-5.49-29.567-6.73-30.207-9.09-62.632-8.96-93.231-2l-1.042.24.738 5.26c.726 2.52-6.001-3.42-3.445-6.12 16.153-8.24 35.001-11.35 52.995-12.83zm666.725-9.41c15.981-2.9 32.467-3.45 48.625-1.99l1.909.18c9.649.85 40.914 2.1 33.514 18.45-1.24 2.73-4.84 3.08-7.16 1.9-7.817-3.97-16.357-5.4-24.979-6.71-30.444-4.25-61.548-2.51-91.269 5.71.646 1.02-.687 2.22-1.948 2.46-3.137.58-3.137-3.17-1.794-5.16 1.6-2.36 4.788-3.22 7.248-4.26 11.446-5 23.583-8.38 35.854-10.58zm-605.281-90.97-1.82-.43c-30.496-7.19-98.112-20.09-105.114 22.02-2.485 18.54 5.713 36.63 5.107 55 31.624-12.89 66.594-12.76 99.449-4.24 2.911-19.06 5.69-38.14 8.663-57.19l.48-2.28c1.323-6.42 1.773-11.45-6.765-12.88zm-67.923 7.67c6.646-5.71 17.728-5.63 24.247.6 5.961 1.26 10.167 7.6 10.263 13.04 9.064 15.97-1.867 38.03-19.172 42.01-39.076 8.26-56.545-45.54-15.338-55.65zm677.018-25.48c32.695-5.85 44.572 35.72 17.738 52.58-37.908 19.06-63.166-40.86-17.738-52.58zm-660.84-92.34c.481 3.18-1.077 5.44-2.942 7.58-6.703 27.54-16.792 53.17-26.739 79.58 32.36-5.38 62.935-.69 91.567 8.12.342-8.06 4.006-16.41 6.55-24.01 4.956-14.42 10.945-28.47 17.853-42.04l.868-1.7c2.482-4.83 4.87-9.87 7.803-14.5-31.672-4.33-63.343-8.24-94.96-13.03zm637.854-5.87-.844 3.83c-3.634 16.63-7.085 33.41-12.495 49.56l-.074.33c-.828 4.08-2.691 22.95-3.863 9.63-.902 2.01-1.866 3.99-2.891 5.94l5.594-.67c29.931-3.56 61.277-6.64 90.698.91-2.976-23.11 1.404-45.2 7.802-67.06-28.039-.65-55.828-.44-83.927-2.47zm-530.971 28.73c-1.025.97-2.03 1.95-2.983 2.98 1.292-.33 2.585-.65 3.783-.93-.049-.76-.583-1.33-.8-2.05zm631.841-21.2-.61 1.44c-.1.24-.2.47-.3.71.47-.28 1-.55 1.56-.79-.26-.42-.47-.86-.65-1.36zM493.657 1157.56c-2.87 1.39-5.864 1.74-9.822 1.91-32.154 1.34-64.205 5.07-95.779 11.44 1.743 25.6 9.514 50.41 16.909 74.82l1.534 5.35c24.988 87.46 46.799 178.85 42.406 270.34.246.09.482.21.707.33-.399 1.12-.685 2.27-1.086 3.38l-.257.66-1.5 3.73c-.83 2.08-1.635 4.16-2.334 6.29-1.227.45-2.736.77-4.173.98-7.295 48.43-.359 102.74 32.511 140.61-13.641-28.6-18.879-64.17-13.256-95.41 3.052 3.32 3.27 10.96 4.439 15.92 3.209 16.95 5.461 34.14 10.282 50.74l.523 1.66c5.405 17 14.449 38.92 30.124 47.7 2.957.89 7.53-.22 8.929 3.42.808 3.24-.698 7.25-4.02 8.26l-.235.07c-9.545 2.71-17.645-4.5-23.765-12.1l-.306 3.97c-.588 7.51-1.408 14.73-5.764 20.91-.513 2.15-1.015 4.31-1.536 6.47-11.79 72.91-29.525 148.29-61.815 214.11l-3.755 11.35c-61.385 185.34-124.96 370.57-161.957 562.88 38.874-4.11 78.074-2.12 116.869 1.74 36.584 3.81 75.28 13.95 110.328-2.24 94.955-290.76 192.906-580.66 300.257-866.99 12.939-45.44 37.24-89.27 49.262-135.86l.753-2.46c2.826-9.34 4.152-15.4 2.078-25.84l-.088-1.27c-.428-6.53-.578-16.43 6.855-18.24 1.261-.32 2.912-.08 3.784 1.01 4.596 5.91.293 13.44 1.618 20.3 3.859 26.25-6.476 51-18.556 73.64.789.95 1.333 2.13 1.425 3.41 1.056 13.95.923 28.05 1.529 42.03 1.719 40.2 4.22 80.36 7.391 120.47 9.928 73.46 24.003 146.16 31.65 219.94 17.411 171.85 14.28 345.02 26.923 517.22.102 15.12 4.838 30.84.04 45.52 3.025-1.99 7.322-1.55 9.976.86 51.542-3.57 103.165-1.82 154.695-4.89.05-2.32.22-4.5.31-6.17-1.44-3.43.96-7.25.89-10.9-6.29-35.74-1.12-74.14-2.41-110.68.06-34.58.23-69.15.47-103.73 1.95-216.08-.67-432.21 3.27-648.27.31-10.62.79-21.22 1.47-31.81-2.83-3.17-.94-7.66-.94-11.46l.17-3.38c.86-17.08 1.84-32.77-4.8-49.6.15-2 .61-3.88 1.66-5.42-31.08-14.61-63.532-25.67-95.617-37.7-5.414 1.34-12.191-2.04-13.329-7.88-12.087-62.18-21.612-124.75-29.845-187.54-53.875 35.46-119.564 41.07-180.742 55.44l-11.579 3.01c-28.554 7.45-58.505 16.14-80.223 36.47-2.195 32.09 14.116 124.58-34.899 122.17-16.058 4.91-32.564 8.85-48.997 10.97 19.133 36.41 54.035 84.92 26.441 125.23-4.003 4.25-9.383-.06-13.041-2.7.453 23.57 1.081 47.02 1.107 70.57 0 3.14-3.23 5.98-6.346 4.91-17.675-6.11-19.86-27.32-22.597-43.33-2.45-14.29-4.911-28.59-7.331-42.89-1.542 25.67 4.619 52.09-.399 77.46-4.817 14.51-19.784 10.19-24.27-1.98l-.133-.37c-8.872-24.66-13.194-51-14.988-77.12l-.095-1.53c-.517-7.93-1.358-16.32.598-24 3.968 7.48 2.981 19.69 4.828 28.74 3.097 19.33 7.284 38.54 13.166 57.21l.153.66c2.658 10.95 13.07 32.29 12.95 5.48.398-13.62-.77-27.2-1.509-40.79l-.102-1.95c-.964-18.56-.861-37.3 4.696-55.19 1.414-4.58 9.104-5.45 10.037 0 3.733 21.77 7.3 43.56 10.867 65.35 2.602 13.31 2.494 28.33 10.397 39.81.092-25.07-1.294-50.06-2.492-75.09l-.239-.78c-.973-3.19-2.026-7.45.208-10.21.872-5.72 9.197-5.06 9.904.92.154 1.25.267 2.52.39 3.77 2.758 3.47 5.321 7.01 8.581 10 21.77-44.57-49.456-121.53-59.289-171.85-28.961-98-12.31-200.75-3.887-300.55-8.71-1.03-17.493-1.31-26.257-1.44zM249.78 2520.75c-.331 1.24-.584 2.59-1.18 3.71.472.08.954.18 1.436.28a53.482 53.482 0 0 1 1.866-3.47c-.708-.16-1.415-.33-2.122-.52zm361.546-458.97c.913-.15 1.282 1.11.39 1.4-30.009 10.01-55.302 28.62-80.595 47.09-3.589 2.62-6.941-2.85-4.429-5.81 10.578-12.42 23.533-20.99 37.955-28.2l.85-.42c14.428-7.29 29.905-11.93 45.829-14.06zm287.37-18.6c-.349-.68.574-1.2.994-.59 6.685 9.44 15.533 18.23 24.319 25.64 8.899 7.52 18.609 13.46 28.133 20.06 5.137 3.55.728 11.12-4.849 8.4-10.848-5.28-20.587-14.02-28.554-23.11-8.212-9.38-14.292-19.41-20.043-30.4zm-186.321-327.32c-33.12 55.79-82.022 111.98-118.519 169.19-24.647 36.68-46.942 74.93-73.952 109.95-5.403 7.38-15.82 1.22-12.119-7.18 10.273-23.24 21.726-45.58 35.514-66.88l4.448-6.62c48.018-71.33 98.912-142.81 164.628-198.46zm137.979-85.14c-.286-.93 1.072-1.34 1.439-.52l.038.1c24.863 68.35 63.194 130.49 96.733 194.59 2.594 5.24-4.317 11.57-8.448 6.61-23.674-28.47-40.273-61.94-54.994-95.83-15.524-33.58-25.047-69.36-34.768-104.95zm57.774-1037.179c15.225 30.643 26.4 63.072 34.141 96.446 2.385 10.304-11.398 16.627-16.966 7.6l-.166-.278c-6.848-11.455-17.052-21.544-29.969-25.489-8.8 36.996-4.512 76.093.061 113.449 8.107 52.046 14.56 104.313 15.525 157.054l.046 2.826c2.826 180.111 29.223 359.411 58.136 535.751 46.224 7.45 88.534 28.45 131.144 46.91 7.4 2.9 14.96 5.43 22.72 7.17-21.41-199.93-102.82-387.42-127.976-586.62-6.65-51.808-6.96-104.416 2.224-155.923.155-.987 1.548-.655 1.61.218 1.009 21.157 4.622 42.039 6.752 63.082 1.46-12.019 4.82-24.192 7.54-35.712 3.32-11.269 4.55-29.362 14.28-36.709l.62-2.129c.25-.914 1.61-.53 1.39.384l-.3 1.299c6.26 1.667.42 9.102-1.13 12.662-10.04 27-13.02 56.225-19.87 84.054 9.91 86.875 27.76 172.644 49.74 257.084 20.2-5.34 40.47-10.49 60.72-15.72-45.17-147.669-18.76-312.475-86.43-453.482-25.36-47.321-87.797-40.892-123.842-73.927zm-343.174-26.996c-9.474-.509-19.367 4.653-28.461 6.429-12.057 2.348-24.053 4.207-35.842 7.813-60.353 16.612-118.579 61.98-129.512 127.346-7.515 44.884 11.093 88.614 10.439 133.373-1.963 44.343-16.525 86.962-22.199 130.859-6.826 44.885-9.175 91.875-3.321 136.975 54.139-15.42 110.679-16.39 166.195-8.42-4.63-68.37 1.445-137.072 4.807-205.39 2.42-43.876 6.562-87.949 5.096-131.908-.031-.976 1.548-1.215 1.7-.239 16.65 89.783 6.883 180.925 5.202 271.467-1.069 22.88 1.753 45.98.613 68.73 25.24 5.45 24.327 35.01 16.609 54.49-1.368 4.69-6.012 3.87-9.771 3.3-4.072 4.3-13.788-1.31-19.326-1.31-4.335 112.39-30.668 232.44 23.294 337.49 22.561.12 44.278-7.69 66.204-12.13l1.196-.24.031-.01c3.223-4.21 4.799-10.98 5.23-15.94 3.064-86.55-6.526-173.31-.915-259.87 6.872-96.08 28.216-191.58 18.343-288.308-6.825-86.455-25.563-171.343-34.595-257.539l-.458-4.459c-.563-5.315-.775-11.186-3.394-15.239-15.236 13.942-28.022 30.52-37.175 49.173-5.068 9.01-18.645 5-18.854-5.172-1.952-18.163-2.241-36.394-.263-54.561l.18-1.603c2.451-22.741 9.294-44.446 18.947-65.107zM1131.4 1190.31c-19.63 1.04-39.27 3.23-58.93 2.97l1.98 7.46c23.79 89.48 49.13 178.8 64.07 270.36l.55-8.59c.54-8.58 1.05-17.17 1.39-25.78 4.24-82.29-2.23-164.46-9.06-246.42zm-57.42.08-2.32-.11.14.51c.48-.1.97-.19 1.45-.27l.73-.13zm63.96-60.43c-.37-.11-1-.11-1.69-.08-1.01 2.32-3.04 4.25-5.4 4.88l-19.67 5.34c-16.39 4.45-32.8 8.87-49.22 13.18 2.76 10.68 5.56 21.36 8.38 32.02 22.41-7.26 47.21-5.61 70.05-10.29-.28-12.33-.95-24.71-1.16-37.06-.05-2.02.36-5.26-.67-7.07-.64-1.15 0-.72-.62-.92zm-752.518 41.49-.616.13c.205.56.389 1.12.564 1.7.011-.62.02-1.22.052-1.83zm145.843-59.31c-42.207-6.19-85.129-9.85-127.697-5.64-19.254 2.63-38.8 5.43-57.671 9.01-6.561 10.15.699 34.84 8.869 42.65 2.45.94 6.664-.88 9.012-1.41 17.616-4.01 35.405-7.23 53.282-9.75.534.67 1.313 1.11 2.276 1.01l4.108-.38c24.657-2.26 49.533-3.92 74.244-2.5l.183.14c16.672 1.23 33.286 3.87 49.889 5.79 6.555-17.27 5.425-37.07-16.495-38.92zm307.094-563.025c1.631 5.563 3.591 10.97 6.028 16.225 2.545-.71 6.055-.141 7.926 1.475l.795-.145c2.189-.419 4.816-1.059 5.5-1.133 30.157-4.205 27.859 36.443 27.969 56.87.184 10.242.389 20.494.697 30.736 8.629-2.961 20.17 2.362 27.713 7.074-5.906-19.809-12.847-39.295-20.588-58.439l-1.761-4.477c-6.022-15.201-12.764-30.51-25.51-41.092-9.851-2.596-19.394-3.067-28.769-7.094zm-218.645-10.198c-28.03-10.073-39.132 12.817-46.907 35.647-9.166 25.282-11.667 53.12-10.14 80.324l.944-1.258c10.313-13.851 25.182-36.715 43.983-33.04-.183-10.51.194-22.056 2.194-32.97-1.169-7.042-1.466-14.158-.655-21.273.429-8.921 10.073-7.568 16.424-8.829 5.495-3.687 12.149-5.173 18.834-2.576a2524.54 2524.54 0 0 1 15.132-1.963c.774-1.714 1.4-3.436 2.051-5.194-13.961-2.907-27.918-5.904-41.86-8.868z\"/>')),\n        //     string(abi.encodePacked('<path fill=\"',skinColor,'\" d=\"M1132.91 1274.42c-10.42-94.38-26.18-191.2-65.97-278.624-13.68-113.054 9.36-274.969-95.341-351.205 1.339-13.536-22.91-25.2-34.152-32.425-18.26-11.967-42.958-35.479-64.572-22.307-6.819-2.082-23.634 6.439-31.375-12.042-7.929-18.931-6.777-56.89-13.1-60.355 2.79-27.355-120.133-45.658-152.216-6.992-15.234 29.658 2.264 39.098-32.085 78.085-15.169.932-29.638 4.779-43.628 10.053-11.551 1.599-23.041 3.542-34.479 5.565-145.887 13.507-156.916 121.502-169.846 237.474-11.071 155.785-59.16 310.993-38.37 468.003-11.491 56.14-12.246 116.05 1.475 171.66-44.989 65.73-12.378 102.1 15.681 164.6 4.749 11.24 8.882 22.82 10.984 34.82-.555 9.29-.493 18.59 1.14 27.82 4.762 21.02 39.787 18.08 41.348-3.16 2.739-13.95 1.89-28.41 4.015-42.43-.124.73-.339 2.13-.339 2.24 5.137-35.27 13.417-48.95 36.288-75.86 29.366-42.47 11.308-95.84 18.01-143.37 1.837-15.88 4.266-31.55 5.891-47.47 9.903 5.83 20.666 10.69 31.913 13.73-7.086 54.69 5.239 109.65 18.942 162.55 37.09 136.29 86.262 276.24 64.904 419.27.01-.07-23.288 116.89-41.689 174.62-22.249 73.22-40.162 146.56-71.639 216.76-16.859 50.53-52.526 98.47-51.141 152.87-12.314 18.22 9.858 40.1 29.397 40.05 0 24.66-13.02 71.13-13.02 71.13-2.045 17.23-10.855 39.17 2.464 53.8-18.107 46.13-24.469 96.04-29.438 144.86-1.899 23.16-4.076 51.07 20.711 64.2 23.093 9.99 49.977 5.6 74.636 8.57 23.857.04 48.545 6.29 72.008.89 26.949-7.67 32.374-36.87 27.3-60.21-3.274-24.31-7.196-48.54-11.488-72.71-12.734-52.61-16.298-110.99-32.61-161.6 9.138-1.71 18.309-6.31 24.509-13.03 15.752-.52 27.366-12.24 31.224-26.11 2.786-8.93 14.779-10.77 22.856-13.61 1.511 7.71 5.925 14.2 9.519 21.22-3.07 14.9 7.175 32.32 24.088 32.67 2.443 2.35 4.713 4.74 7.208 6.98-19.233 28.31-33.495 60.28-37.108 93.99-4.353 25.86-8.907 67.3 25.32 74.95 12.922 1.71 26.828 5.02 39.49.31 14.117 6.33 29.127 9.37 44.326 12.08 65.144 11 127.973 10.08 193.659 17.46 17.33 2.41 86.77 9.54 98.33 0 14.09 2.88 5.57-7.63 11.5-17.46 4.72-7.37 17.34-21.5 9.19-25.6-17.08-7.37-32.22-21.87-47.85-30.11-73.053-41.58-230.612-112.38-229.518-114.38-.216 1.41.955-34.18 6.795-43.63 8.216-8.14 24.588-6.71 33.164-14.5 5.442.25 46.272-11.49 42.777-31.17-4.478-15.7 10.152-34.95 0-48.21 33.613-307.05 111.832-604.84 154.992-910.25.96-.84 1.9-1.69 2.86-2.53 22.25 3.72 39.54-18.63 46.3-36.24 3.26-3.3 6.39-6.71 9.26-10.4 18.14-23.58 18.47-54.31 20.53-82.37 4.49-3.3 7.37-8.42 7.62-14.47.72-18.04 1.48-36.08 2.24-54.11.01 0 .01 0 .01-.01 5.58-8.97 6.34-19.06 4.75-29.34.59-33.25 5.71-64.4-8.65-94.99z\"/><path fill=\"#fff\" d=\"m438.216 2848.89 8.946 3.62c51.091 20.66 111.051 27.06 176.965 21.27l1.999-.18 11.994-1.09-4.308 11.24c-3.4 8.88-10.119 15.29-19.702 19.48l-.773.33-.245.08c-23.825 8.2-70.912 11.27-109.219 4.44-31.322-5.59-56.774-20.46-58.837-22.46-6.79-6.61-9.585-15.38-8.191-26.61l.073-.56 1.298-9.56zm231.74-81.9-2.137-10.57 10.651 1.67c72.686 11.41 136.272 18.76 258.381 30.92l60.3 6c32.429 3.26 53.219 5.42 76.969 8.03l5.62.62 1.93 3.1c.19.31.45.59.76.83l.19.13-4.45 13.76-.57.36c-1.05.68-1.74 1.09-2.64 1.49l-.3.14-1.26.55-1.38.06c-79.844 3.64-155.26 1.61-227.257-6.72l-2.633-.31-3.016-.36c-37.924-4.44-149.332-26.55-154.98-30.04-7.349-4.54-12.257-10.88-14.072-19.16l-.106-.5zm480.554-1383.61c-10.73 7.03-150.24 71.24-304.414 75.13-107.559 2.71-295.097-45.51-349.097-49.51-18.916-1.4-2.808 55.54.463 58.65-1.265 12.02-9.492 32.15-8.594 44.32-15.424-4-63.869-11.97-126.869-43.97-9.021-4.58-14.292-253.04.097-376.49C382 920.727 392.328 764.637 406.999 756c.171 4.344-11.882-116.721 90-136 18.499-3.501 126-28 126-28 44 56 114.017 103 154 103 71 0 111.16-103.239 118-102C1044 620 1031.08 798.326 1067 996c31.36 172.62 80.69 341.1 83.51 387.38z\"/><path fill=\"red\" d=\"m1058.17 1405.36 10.95-2.94-2.4 17.05-7.5 52.04c-1.47 10.26-82.483 466.18-82.483 466.18s-83.069 515.6-86.982 582.17c-.183 3.11-5.121 46.28-10.678 49.91l-.4.26-.397.25c-1.783 1.1-15.229 10.62-71.279 19.72-31.726 5.15-136.729 14.86-136.729 14.86l.326-9.29c.29-7.93.862-21.29 1.23-30.71l.099-2.58.154-4.31-.178-.04c-2.249-.42-4.438.54-8.282 4.42-6.498 6.55-14.649 19.6-24.896 40.66l-2.938 6.06s-152.848-39.58-186.054-59.55l-1.025-.62-4.657-2.83 1.702-7.22c7.88-33.17 113.143-347.26 125.533-389.03l1.151-3.89.657-2.24c16.985-57.99 47.883-318.67 25.907-396.69-40-142-74.529-300.35-79.401-316.46l-.716-2.35-.725-2.34-3.844-12.33 12.613 2.77c174.189 38.28 356.135 35.17 526.102-9.56l5.14-1.37z\"/><path fill=\"#000\" d=\"M675.45 507.191c.336-2.944 4.264-2.899 4.638 0 4.13 35.037-9.704 75.26-43.729 91.588 25.513 22.536 43.469 52.665 74.084 69.678 64.235 41.85 157.063 2.692 171.348-71.113-15.854-3.637-45.395-3.329-50.208-21.852-2.326-2.385-3.525-22.82-3.382-37.891-.145-2.802-.235-5.607-.33-8.39-.243-2.256-.312-4.555-.288-6.868.05-5.017 7.561-4.919 7.876 0 .131 2.017.218 4.059.299 6.111.055.542.13 1.082.196 1.622 1.033 3.753 1.748 7.676 2.592 11.238a269.61 269.61 0 0 0 1.428 5.792c.724 5.075 2.02 10.033 4.24 14.728 5.901 12.483 20.452 23.202 34.796 23.318 3.073.024 6.129-.427 9.204-.35 5.008.128 9.1 2.112 13.569 4.133 4.035 1.824 7.824 3.058 11.717 3.052 160.58 54.462 138.47 253.826 162.93 388.615 24.92 133.858 76.42 262.918 84 399.718 2.27 14.18-13.4 19.45-23.11 26.16-2.59 35.69 12.42 71.81 2.01 107.13-9.64 28.88-48.48 98.32-85.6 87.38-42.08 319.88-139.902 616.33-149.156 940.1 9.37 27.07-17.534 46.72-42.349 50.68l-3.383 1.95c-11.314 6.5-23.004 12.85-35.381 16.87-.31.18-.619.36-.934.53-.603.33-1.249.53-1.91.63.693 8.29 3.311 16.07 6.688 23.64 51.487 11.88 96.708 43.06 145.124 63.46 31.231 19.21 126.571 46.97 133.811 80.72l.19 1.03c2.91 15.12-5.22 33.78-22.44 35.21 8.99 6.65 3.1 20.09-6.69 22.68-11.77 3.14-24.54 1.8-36.65 2.77-114.242 3.59-229.493-6.5-340.85-32.12-9.352-2.16-19.092-4.98-26.974-10.57-48.326-38.25 1.975-119.22 13.854-168.84-4.314-.69-8.579-1.63-12.769-2.88l-.937-.28c-4.072-1.23-8.282-2.71-11.445-5.58-.129-.12-.238-.25-.361-.38-20.358-.29.376-45.13 2.207-57.12-8.274 17.62-15.029 36.43-24.938 53.21-6.823 10.35-21.785 3.17-31.834 2.44 3.342 61.34 17.978 121.14 33.011 180.57 12.208 49.35 33.165 108.65-35.993 123.65-47.634 12.48-161.143 7.71-181.447-44.45-5.987-42.47 7.126-85.52 13.612-127.38l1.137-5.95c7.742-40.69 14.9-81.57 26.127-121.5 1.545-6.51 3.448-12.88 5.494-19.21.267-3.69.461-7.39.222-11.09-.313-4.86-1.231-9.61-2.205-14.38-.125-.6-.237-1.3-.352-2.06-20.057-9.25-34.951-19.72-36.873-31.01-1.966-10.72 2.009-21.59 4.957-31.82l.172-.6c64.595-226.88 187.465-431.34 166.526-673.36-7.703-119.03-64.062-228.51-73.572-347.24-5.47-23.68-10.409-47.61-11.204-72.02-3.379-.8-6.783-1.52-10.145-2.39-1.972 10.55-4.466 21.02-8.554 30.88-1.576 19.48-.569 39.17 2.821 58.44.781 4.44-1.38 8.3-5.039 9.72 8.79 27.4 10.524 61.76-12.144 82.98l-1.878 1.24c-19.692 13.12-21.75 16.83-26.331 41.26l-15.077 61.74c-1.891 7.64-4.155 15.43-9.603 21.43-14.456 15.92-37.466 5.53-44.921-11.44-6.804-17.39-6.753-36.52-11.721-54.43-3.776-18.49-14.248-34.29-24.627-49.79-23.202-35.6-25.054-85.17.817-120.03 2.259-5.77 4.328-11.45 6.728-17.12-8.952-10.5-3.19-27.05-4.218-39.91-.017-10.61-.212-21.22-.535-31.83-1.889-62.65-8.34-124.91-8.574-187.57-2.509-84.45 19.709-166.25 32.59-249.081 11.076-81.793 10.486-165.184 28.607-246.023 33.723-158.676 222.96-98.182 254.975-160.711 9.674-15.646 14.005-33.452 16.064-51.464zM444.297 2859.46c-2.863 21.1 11.953 26.16 28.942 32.58 43.316 15.89 93.331 19.66 137.359 4.51 7.802-3.3 13.384-8.24 16.157-15.48-61.104 5.58-125.268 1.52-182.458-21.61zm232.957-93.96c3.834 18.95 28.245 21.18 44.591 24.37 39.035 8.17 78.451 14.73 118.088 19.37 76.809 9.27 154.51 10.86 231.697 7.34 2.08-.9 3.42-2.63 6.05-2.62h.33c.14 0 .28.02.43.02-1.28-.84-2.38-1.96-3.2-3.27-132.668-14.59-266.143-24.52-397.986-45.21zm129.703-162.49c-31.865 5.54-64.389 8.45-96.563 3.42-2.169 26.64-12.477 52.5-20.585 77.99 44.453 11.75 73.873-37.58 113.636-46.97-2.253-11.78-1.454-24.17 3.512-34.44zm-328.429-20.36c.107.18.163.41.142.67-.154 31.03-3.3 61.95-7.871 92.67 28.245-30.45 75.516-38.16 114.448-25.5l-.171-1.98c-1-11.25-2.496-22.76-.663-33.9l-1.784-.5c-20.081-5.54-67.297-16.66-104.101-31.46zm581.782-1170.3c-173.928 46.71-359.065 49.64-534.804 11.02 8.764 28.12 15.346 56.74 19.996 85.76 9.965 74.63 37.415 145.15 55.907 217.86 21.334 85.82 26.417 158.08 15.799 245.74l-.326 2.65c-23.379 196.58-119.116 376.02-164.095 566.86 52.932 32.15 118.32 44.71 179.014 58 38.144-78.71 70.376-159.42 91.498-244.17 76.091-266.01 176.353-516.48 154.083-797.33-4.965-3.26-3.35-10.13-.621-14.53-.943-20.26-2.248-40.5-4.384-60.65-.071-.68 1.069-.82 1.209-.16 3.531 17.26 7.239 34.47 10.341 51.82 21.383-21.77 35.211-48.98 54.016-72.6 2.676 17.63-33.981 85.95-50.111 96.52 34.369 211.19-22.864 404.52-84.68 605.37-41.597 144.22-82.013 288.86-124.93 432.68l1.562.03c-2.581-4.75 52.04-1.47 56.525-3.86 40.225-3.81 79.595-13.34 118.72-22.9l4.801-1.24c9.748-2.57 21.065-6.25 22.818-16.68l.026-1.31c.011-.39.029-.7.061-.73l-.281-1.17c-.061-.27-.102-.48-.093-.55l-.389-.58c-.448-.64-.869-1.22-.272-.56-4.419-4.83-4.82-12.3.281-16.92 9.56-351.29 122.639-672.8 164.519-1020.16 4.15-32.79 9.22-65.47 13.81-98.21zm-692.8 68.02c-20.11 24.99-23.564 59.86-15.636 90.32 4.164 15.11 12.581 27.84 21.259 40.8 15.218 21.61 22.316 46.72 26.187 72.45l.109.49c1.766 8.27 2.862 31.09 14.541 28.52 3.067-1.97 4.537-10.64 5.616-15.18l13.482-55.22c3.903-15.98 6.244-34.98 20.072-46.05l1.634-1.04c11.296-7.27 22.314-15.7 24.087-29.86 3.891-17.36-3.344-34.17-6.047-51.04-36.063-8.26-71.272-19.9-105.304-34.19zm765.4-71.35-1.21.6c-13.87 6.91-55.26 29.29-65.93 20.69.25 51.15-3.84 102.05-9.84 152.79 1.53-.34 3.11-.3 4.53.22 30.09-8.33 62.79-65.24 65.31-94.48 2.06-26.62-3.23-54.38 7.14-79.82zM638.194 625.077l-1.532-2.029c-16.29-21.44-25.432-29.097-53.601-17.657 3.786 4.687 5.569 10.968 3.954 17.472l-.107.416c-8.888 36.571-54.478 57.76-87.847 37.862-11.659 3.035-23.815-5.347-24.284-17.227-33.021 19.44-48.278 55.058-54.47 90.831 21.676-11.412 50.824-.52 59.475 22.175 18.962 41.476-36.297 84.624-69.995 49.697-7.302 69.96-10.729 140.456-24.029 209.683 9.857-16.21 33.359-20.025 47.373-6.68 45.887 39.61-6.89 129.61-62.361 86.71-6.723 38.54-9.095 77.62-8.78 116.61 17.775-6.85 27.506 23.87 28.795 36.88 1.609 15.65-6.471 48.47-25.405 50.32l1.557 25.03c2.646 42.9 4.997 85.75 4.408 128.76.952.24 1.763.67 2.442 1.23.049 1.25.214 2.49.45 3.72.233 1.22 1.008 1.86 1.921 2.06l.031.05c-.042.86-.21 1.73-.533 2.54 34.754 14.55 70.631 26.57 107.173 36.03-.897-12.17-.67-24.3.595-36.32-13.816-13.14 3.178-60.83 4.807-79.37 6.385-37.15 11.244-74.52 15.539-111.95-12.826-1.1-19.393-14.49-22.765-25.39-4.397-12-7.048-24.81-3.953-37.43 3.141-15.02 19.971-29.38 35.843-24.09l1-10.06c6.284-63.74 11.776-127.59 21.184-190.978-30.727 17.148-59.742-20.14-52.321-49.081 2.173-12.286 9.655-24.191 20.693-30.574 9.764-5.611 29.946-11.171 36.348 1.176 2.998.384 5.809 1.847 7.931 4.006 6.638-34.376 14.712-69.018 27.559-101.6-40.608-25.508-33.012-89.735 20.434-89.82 72.072 6.173 52.899 111.313-16.614 91.541-21.834 131.582-34.416 264.25-45.583 397.05 8.404 13.69 7.073 34.02-4.459 45.55-5.015 48.04-11.1 95.98-19.093 143.63 52.871 11.78 106.393 21.53 160.497 26.02 2.601-16.73 20.805-25.66 36.537-27.01 10.417-1.12 21.75 2.84 31.701 4.73 12.023 4.6 21.86 15.18 26.253 26.72 50.507.3 101.044-2.89 151.079-9.43-5.053-25.17 31.581-44.36 53.885-40.44 8.926 1.09 17.634 4.47 24.324 10.5 6.53 1.39 12.67 7.03 14.3 13.82 17.71-4.21 35.86-7.42 52.97-13.68 16.79-5.51 22.28-19.33 17.93-35.67-47.5 19.02-87.796-56.45-42.47-83.75 5.8-4.29 17.89-7.07 21.29 1.05.58.1 1.15.22 1.72.36-3.77-15.53-7.56-31.05-11.35-46.58-21.78-2.08-29.05-34.03-10.97-45.25-6.15-25.75-12.12-51.56-17.72-77.43-29.843 6.15-54.579-30.97-48.264-57.78l.201-.81c3.565-14.57 14.412-28.9 30.433-31.33-3.783-21.895-7.166-43.869-10.014-65.915-4.128-4.393-5.976-10.944-4.369-16.741 1.164-42.378-7.433-86.012-3.968-128.995-31.668 38.478-97.652 12.287-82.58-38.487-.881-47.035 65.994-63.705 88.545-22.123 2.415-8.87 5.519-17.695 7.038-26.84.231-1.051 1.852-.838 1.948.147l.005.112c3.365 60.15.887 120.692 7.345 180.776 24.13 1.186 33.99 58.722 7.77 62.852 9.92 66.894 24.81 132.914 40.99 198.624 28.12-7.22 39 53.2 15.85 63.36 6.73 26.71 13.44 53.42 19.98 80.18l.13-.06c3.4-5.84 12.46-5.19 18.29-4.07 19.24 7.09 11.1 41.9-9.85 39.77 11.43 34.38 4.19 66.28-33.95 78.1l.02 1.09c1.19-.92 2.62-1.67 4.36-2.16 23.83-6.68 46.08-17.07 66.61-30.54-6.04-99.28-34.79-195.52-58.06-291.81-26.73-4.26-35.26-47.07-14.4-62.84-14.44-63.935-18.6-129.315-25.67-194.245-19.25-4.196-24.12-35.084-6.73-44.545-11.02-80.635-52.501-148.605-129.9-183.172-2.509 11.477-6.674 22.621-12.247 33.051.522.029 1.027.092 1.521.175.129.231.286.46.499.679 4.192 4.286 6.878 9.109 8.581 14.272.165 1.11.348 2.218.536 3.325a13.78 13.78 0 0 1-.638 1.342c8.293 31.508-30.574 47.614-56.817 40.566-4.069-.8-6.727-3.078-8.146-5.959-46.462 24.968-107.1 19.706-148.955-13.307-30.422 16.238-69.591-21.683-47.85-51.425zM420.17 1331.51c44.456-6.54 58.997 64.86 23.167 84.69-11.553 6.85-27.439 7.45-38.814-.13-30.287-18.32-21.863-80.8 15.647-84.56zm169.219-42.72c56.579-.25 61.419 86.5 12.068 102.11-36.7 10.59-72.65-30.04-53.829-63.92 1.739-21.08 19.993-37.89 41.761-38.19zm176.297 7.87c2.943-22.41 26.456-43.82 50.121-37.65 21.685 5.46 27.34 30.72 31.185 49.42 8.743 38.73-35.295 77.99-72.401 56.67-23.703-14.13-27.168-48.71-8.905-68.44zm126.364-130.77c7.931-12.57 25.697-18.11 40.201-13.73 39.781 12.65 35.055 76.13 3.044 95.06-54.989 28.65-98.844-53.72-43.245-81.33zm-259.087 37.09c-.93-37.73 38.172-72.07 74.903-50.62 59.451 39.66-1.433 130.65-58.474 79.65-10.166-6.53-16.173-17.13-16.429-29.03zm-73.962-96.26c-27.515-42.66 19.741-105.9 64.839-65.03 15.467 15.81 14.776 44.79 5.822 63.58-14.566 25.1-55.017 25.68-70.661 1.45zm199.797-80c21.473-20.52 58.994-20.74 75.309 6.34 19.339 33.4-3.741 90.55-47.336 87.84-45.295-3.2-57.704-66.59-27.973-94.18zm-112.505-66.704c-34.456-35.137 2.955-91.5 49.685-77.927 76.372 27.975 10.091 133.241-49.685 77.927zm188.086-7.927c-30.69-55.731 43.864-105.841 81.806-52.199 29.101 48.584-49.466 104.67-81.806 52.199zM734.278 793.55c-26.555-46.452 19.851-98.068 68.608-70.804 69.38 47.966-19.428 140.216-68.608 70.804z\"/>'))\n        // ];   \n        // return bodies[i];\n        return \"\";\n    }\n}",
  "sourcePath": "contracts/Body.sol",
  "type": "contract"
}