{
  "abi": [
    {
      "inputs": [
        {
          "internalType": "uint256",
          "name": "i",
          "type": "uint256"
        }
      ],
      "name": "get",
      "outputs": [
        {
          "internalType": "string",
          "name": "",
          "type": "string"
        }
      ],
      "stateMutability": "view",
      "type": "function"
    }
  ],
  "bytecode": "608060405234801561001057600080fd5b50610a6b806100206000396000f3fe608060405234801561001057600080fd5b506004361061002b5760003560e01c80639507d39a14610030575b600080fd5b61004361003e3660046109b1565b610059565b60405161005091906109ca565b60405180910390f35b60606000604051806020016040528060405160200161097f907f3c706174682066696c6c3d22233030302220643d224d3830382e35383720343581527f362e393236632d362e3732332d322e3734322d31322e3732312d372e3331362d60208201527f31372e3130362d31332e31362d312e3532342d322e3033312d312e39322d342e60408201527f3137372d312e362d362e3133392e33362d322e32303620312e3636352d342e3260608201527f303520332e3434352d352e35343720312e3738362d312e33343520342e30313960808201527f2d322e30303820362e3137382d312e363720312e3837372e32393420332e373460a08201527f3420312e33323120352e32323320332e3435326c2e3330382e34323663322e3660c08201527f303720332e35323720362e30303520362e343220392e38373520382e3238362060e08201527f332e37333120312e37393820372e39303420322e3633372031322e32323220326101008201527f2e31343920382e3232342d2e3932392031332e3839322d352e3337372031392e6101208201527f3931372d31312e3431372e3734372d2e37363220312e3439342d312e353439206101408201527f322e3234352d322e33343861332e35323820332e35323820302030203120312e6101608201527f3836332d312e34333420342e30303320342e30303320302030203120322e35366101808201527f392e30333820342e30373420342e30373420302030203120322e30323120312e6101a08201527f353332632e3436322e3637382e37323420312e3531362e36333920322e34382d6101c08201527f2e35353120362e3235392d332e3832342031312e3834352d382e3437322031366101e08201527f2e3233312d352e31363220342e3837322d31322e30303520382e3234322d31386102008201527f2e34343820392e3432342d372e30393820312e3330322d31342e33332e3336396102208201527f2d32302e3837392d322e3330337a6d32342e3232372d39362e35353963372e356102408201527f353220342e35392031392e3035382031352e3239332031302e3933342032362e6102608201527f3637322d392e3536322031302e3033342d32332e33332d312e34372d33302e316102808201527f31342d362e3637332d362e3239312d342e3033322d31332e33353920362e33336102a08201527f382d372e3532322031312e3034372034392e3032342033362e3239352036382e6102c08201527f3931392d32392e3834362033302e3532322d33362e3434332d342e3232382d2e6102e08201527f3732372d352e37393820332e3937372d332e383220352e3339377a6d2d38372e6103008201527f3835312d34322e323231632e3833352d31302e3335362031362e3630372d31326103208201527f2e3730382031382e3137362d322e343620312e34303520392e31382d2e3234396103408201527f2031372e3631332d342e3338342032352e3837382d332e39353120372e3839366103608201527f2d31332e38383120342e3231322d31342e3633322d322e3937382d312e3030376103808201527f2d392e3633382e3332312d31332e3939382e38342d32302e34347a6d3132302e6103a08201527f3036342d342e35383563322e3139392d322e383820352e3337342d342e3834366103c08201527f20392e3137382d332e3733352031312e38383520332e34373320382e333832206103e08201527f32302e33343620342e3230382032382e3535392d322e32363820342e34362d396104008201527f2e35393920352e3539312d31322e39313220312e3636342d352e342d362e34306104208201527f342d372e3938362d31392e3139332d312e3132312d32352e3530312e3138362d6104408201527f2e3332362e3339332d2e3635352e3634372d2e3938377a4d3735382e353838206104608201527f3237322e38336c312e3837372d2e33323863352e3830382d312e3030352031336104808201527f2e3032392d312e39372031372e31333820322e36393920322e31373920322e346104a08201527f373620322e39323920372e303738203020392e3434382d352e31353220342e316104c08201527f372d31302e38343820322e3535342d31372e30323220322e3930376136372e376104e08201527f33312036372e3733312030203020302d31342e38373920322e353335632d31306105008201527f2e37353220332e3037332d31392e35313320382e3638332d32382e36393620316105208201527f342e3834332d312e3230352e3830382d322e3433352d2e3733332d312e38362d6105408201527f312e383620352e3330312d31302e3338332031352e3537342d31382e393132206105608201527f32352e3836342d32342e31313120352e3439322d322e3737352031312e3530326105808201527f2d352e3037372031372e3537382d362e3133337a6d39352e3630352d342e36356105a08201527f3120312e3433372e3239346331352e36333720332e3236392033352e393533206105c08201527f392e3739382034332e3335382032352e3135382e32383320322e3137312d2e306105e08201527f313620322e3633372d2e32353820322e3934316c2d2e3038312e313031632d2e6106008201527f3139392e32362d2e3335392e3631382d312e332e3931346133392e39303420336106208201527f392e3930342030203020312d2e3739322d2e313939632d332e3339342d2e38386106408201527f392d362e30382d322e3131342d382e36382d332e3338366c2d322e3831392d316106608201527f2e333839632d332e32372d312e3630332d362e35372d332e3134392d31302e306106808201527f36362d342e3238392d372e3436322d322e3433342d31352e3133382d342e31346106a08201527f392d32322e3933322d352e3036352d312e36392d2e3139382d332e3331362d2e6106c08201527f3736382d342e362d312e37343561362e393120362e39312030203020312d322e6106e08201527f3537332d332e393139632d2e35352d322e3230392d2e3339322d332e3838312e6107008201527f3739332d352e38373461372e34343920372e34343920302030203120332e36336107208201527f312d332e313363312e3439332d2e36303720332e3139322d2e373520342e3838610740820152691916971a18993d11179f60b11b61076082015261076a0190565b60405160208183030381529060405281525090508083600181106109a5576109a5610a1f565b60200201519392505050565b6000602082840312156109c357600080fd5b5035919050565b600060208083528351808285015260005b818110156109f7578581018301518582016040015282016109db565b81811115610a09576000604083870101525b50601f01601f1916929092016040019392505050565b634e487b7160e01b600052603260045260246000fdfea2646970667358221220c68134725482f02760b02111fc6175ffcc27cd441a7abad6eb1fac3713df196964736f6c634300080d0033",
  "bytecodeSha1": "a22689eb48a31f406de6738691069ae876148a4f",
  "compiler": {
    "evm_version": "istanbul",
    "optimizer": {
      "enabled": true,
      "runs": 200
    },
    "version": "0.8.13+commit.abaa5c0e"
  },
  "contractName": "Face",
  "language": "Solidity",
  "natspec": {
    "kind": "dev",
    "methods": {},
    "version": 1
  },
  "opcodes": "PUSH1 0x80 PUSH1 0x40 MSTORE CALLVALUE DUP1 ISZERO PUSH2 0x10 JUMPI PUSH1 0x0 DUP1 REVERT JUMPDEST POP PUSH1 0x4 CALLDATASIZE LT PUSH2 0x2B JUMPI PUSH1 0x0 CALLDATALOAD PUSH1 0xE0 SHR DUP1 PUSH4 0x9507D39A EQ PUSH2 0x30 JUMPI JUMPDEST PUSH1 0x0 DUP1 REVERT JUMPDEST PUSH2 0x43 PUSH2 0x3E CALLDATASIZE PUSH1 0x4 PUSH2 0x9B1 JUMP JUMPDEST PUSH2 0x59 JUMP JUMPDEST PUSH1 0x40 MLOAD PUSH2 0x50 SWAP2 SWAP1 PUSH2 0x9CA JUMP JUMPDEST PUSH1 0x40 MLOAD DUP1 SWAP2 SUB SWAP1 RETURN JUMPDEST PUSH1 0x60 PUSH1 0x0 PUSH1 0x40 MLOAD DUP1 PUSH1 0x20 ADD PUSH1 0x40 MSTORE DUP1 PUSH1 0x40 MLOAD PUSH1 0x20 ADD PUSH2 0x97F SWAP1 PUSH32 0x3C706174682066696C6C3D22233030302220643D224D3830382E353837203435 DUP2 MSTORE PUSH32 0x362E393236632D362E3732332D322E3734322D31322E3732312D372E3331362D PUSH1 0x20 DUP3 ADD MSTORE PUSH32 0x31372E3130362D31332E31362D312E3532342D322E3033312D312E39322D342E PUSH1 0x40 DUP3 ADD MSTORE PUSH32 0x3137372D312E362D362E3133392E33362D322E32303620312E3636352D342E32 PUSH1 0x60 DUP3 ADD MSTORE PUSH32 0x303520332E3434352D352E35343720312E3738362D312E33343520342E303139 PUSH1 0x80 DUP3 ADD MSTORE PUSH32 0x2D322E30303820362E3137382D312E363720312E3837372E32393420332E3734 PUSH1 0xA0 DUP3 ADD MSTORE PUSH32 0x3420312E33323120352E32323320332E3435326C2E3330382E34323663322E36 PUSH1 0xC0 DUP3 ADD MSTORE PUSH32 0x303720332E35323720362E30303520362E343220392E38373520382E32383620 PUSH1 0xE0 DUP3 ADD MSTORE PUSH32 0x332E37333120312E37393820372E39303420322E3633372031322E3232322032 PUSH2 0x100 DUP3 ADD MSTORE PUSH32 0x2E31343920382E3232342D2E3932392031332E3839322D352E3337372031392E PUSH2 0x120 DUP3 ADD MSTORE PUSH32 0x3931372D31312E3431372E3734372D2E37363220312E3439342D312E35343920 PUSH2 0x140 DUP3 ADD MSTORE PUSH32 0x322E3234352D322E33343861332E35323820332E35323820302030203120312E PUSH2 0x160 DUP3 ADD MSTORE PUSH32 0x3836332D312E34333420342E30303320342E30303320302030203120322E3536 PUSH2 0x180 DUP3 ADD MSTORE PUSH32 0x392E30333820342E30373420342E30373420302030203120322E30323120312E PUSH2 0x1A0 DUP3 ADD MSTORE PUSH32 0x353332632E3436322E3637382E37323420312E3531362E36333920322E34382D PUSH2 0x1C0 DUP3 ADD MSTORE PUSH32 0x2E35353120362E3235392D332E3832342031312E3834352D382E343732203136 PUSH2 0x1E0 DUP3 ADD MSTORE PUSH32 0x2E3233312D352E31363220342E3837322D31322E30303520382E3234322D3138 PUSH2 0x200 DUP3 ADD MSTORE PUSH32 0x2E34343820392E3432342D372E30393820312E3330322D31342E33332E333639 PUSH2 0x220 DUP3 ADD MSTORE PUSH32 0x2D32302E3837392D322E3330337A6D32342E3232372D39362E35353963372E35 PUSH2 0x240 DUP3 ADD MSTORE PUSH32 0x353220342E35392031392E3035382031352E3239332031302E3933342032362E PUSH2 0x260 DUP3 ADD MSTORE PUSH32 0x3637322D392E3536322031302E3033342D32332E33332D312E34372D33302E31 PUSH2 0x280 DUP3 ADD MSTORE PUSH32 0x31342D362E3637332D362E3239312D342E3033322D31332E33353920362E3333 PUSH2 0x2A0 DUP3 ADD MSTORE PUSH32 0x382D372E3532322031312E3034372034392E3032342033362E3239352036382E PUSH2 0x2C0 DUP3 ADD MSTORE PUSH32 0x3931392D32392E3834362033302E3532322D33362E3434332D342E3232382D2E PUSH2 0x2E0 DUP3 ADD MSTORE PUSH32 0x3732372D352E37393820332E3937372D332E383220352E3339377A6D2D38372E PUSH2 0x300 DUP3 ADD MSTORE PUSH32 0x3835312D34322E323231632E3833352D31302E3335362031362E3630372D3132 PUSH2 0x320 DUP3 ADD MSTORE PUSH32 0x2E3730382031382E3137362D322E343620312E34303520392E31382D2E323439 PUSH2 0x340 DUP3 ADD MSTORE PUSH32 0x2031372E3631332D342E3338342032352E3837382D332E39353120372E383936 PUSH2 0x360 DUP3 ADD MSTORE PUSH32 0x2D31332E38383120342E3231322D31342E3633322D322E3937382D312E303037 PUSH2 0x380 DUP3 ADD MSTORE PUSH32 0x2D392E3633382E3332312D31332E3939382E38342D32302E34347A6D3132302E PUSH2 0x3A0 DUP3 ADD MSTORE PUSH32 0x3036342D342E35383563322E3139392D322E383820352E3337342D342E383436 PUSH2 0x3C0 DUP3 ADD MSTORE PUSH32 0x20392E3137382D332E3733352031312E38383520332E34373320382E33383220 PUSH2 0x3E0 DUP3 ADD MSTORE PUSH32 0x32302E33343620342E3230382032382E3535392D322E32363820342E34362D39 PUSH2 0x400 DUP3 ADD MSTORE PUSH32 0x2E35393920352E3539312D31322E39313220312E3636342D352E342D362E3430 PUSH2 0x420 DUP3 ADD MSTORE PUSH32 0x342D372E3938362D31392E3139332D312E3132312D32352E3530312E3138362D PUSH2 0x440 DUP3 ADD MSTORE PUSH32 0x2E3332362E3339332D2E3635352E3634372D2E3938377A4D3735382E35383820 PUSH2 0x460 DUP3 ADD MSTORE PUSH32 0x3237322E38336C312E3837372D2E33323863352E3830382D312E303035203133 PUSH2 0x480 DUP3 ADD MSTORE PUSH32 0x2E3032392D312E39372031372E31333820322E36393920322E31373920322E34 PUSH2 0x4A0 DUP3 ADD MSTORE PUSH32 0x373620322E39323920372E303738203020392E3434382D352E31353220342E31 PUSH2 0x4C0 DUP3 ADD MSTORE PUSH32 0x372D31302E38343820322E3535342D31372E30323220322E3930376136372E37 PUSH2 0x4E0 DUP3 ADD MSTORE PUSH32 0x33312036372E3733312030203020302D31342E38373920322E353335632D3130 PUSH2 0x500 DUP3 ADD MSTORE PUSH32 0x2E37353220332E3037332D31392E35313320382E3638332D32382E3639362031 PUSH2 0x520 DUP3 ADD MSTORE PUSH32 0x342E3834332D312E3230352E3830382D322E3433352D2E3733332D312E38362D PUSH2 0x540 DUP3 ADD MSTORE PUSH32 0x312E383620352E3330312D31302E3338332031352E3537342D31382E39313220 PUSH2 0x560 DUP3 ADD MSTORE PUSH32 0x32352E3836342D32342E31313120352E3439322D322E3737352031312E353032 PUSH2 0x580 DUP3 ADD MSTORE PUSH32 0x2D352E3037372031372E3537382D362E3133337A6D39352E3630352D342E3635 PUSH2 0x5A0 DUP3 ADD MSTORE PUSH32 0x3120312E3433372E3239346331352E36333720332E3236392033352E39353320 PUSH2 0x5C0 DUP3 ADD MSTORE PUSH32 0x392E3739382034332E3335382032352E3135382E32383320322E3137312D2E30 PUSH2 0x5E0 DUP3 ADD MSTORE PUSH32 0x313620322E3633372D2E32353820322E3934316C2D2E3038312E313031632D2E PUSH2 0x600 DUP3 ADD MSTORE PUSH32 0x3139392E32362D2E3335392E3631382D312E332E3931346133392E3930342033 PUSH2 0x620 DUP3 ADD MSTORE PUSH32 0x392E3930342030203020312D2E3739322D2E313939632D332E3339342D2E3838 PUSH2 0x640 DUP3 ADD MSTORE PUSH32 0x392D362E30382D322E3131342D382E36382D332E3338366C2D322E3831392D31 PUSH2 0x660 DUP3 ADD MSTORE PUSH32 0x2E333839632D332E32372D312E3630332D362E35372D332E3134392D31302E30 PUSH2 0x680 DUP3 ADD MSTORE PUSH32 0x36362D342E3238392D372E3436322D322E3433342D31352E3133382D342E3134 PUSH2 0x6A0 DUP3 ADD MSTORE PUSH32 0x392D32322E3933322D352E3036352D312E36392D2E3139382D332E3331362D2E PUSH2 0x6C0 DUP3 ADD MSTORE PUSH32 0x3736382D342E362D312E37343561362E393120362E39312030203020312D322E PUSH2 0x6E0 DUP3 ADD MSTORE PUSH32 0x3537332D332E393139632D2E35352D322E3230392D2E3339322D332E3838312E PUSH2 0x700 DUP3 ADD MSTORE PUSH32 0x3739332D352E38373461372E34343920372E34343920302030203120332E3633 PUSH2 0x720 DUP3 ADD MSTORE PUSH32 0x312D332E313363312E3439332D2E36303720332E3139322D2E373520342E3838 PUSH2 0x740 DUP3 ADD MSTORE PUSH10 0x1916971A18993D11179F PUSH1 0xB1 SHL PUSH2 0x760 DUP3 ADD MSTORE PUSH2 0x76A ADD SWAP1 JUMP JUMPDEST PUSH1 0x40 MLOAD PUSH1 0x20 DUP2 DUP4 SUB SUB DUP2 MSTORE SWAP1 PUSH1 0x40 MSTORE DUP2 MSTORE POP SWAP1 POP DUP1 DUP4 PUSH1 0x1 DUP2 LT PUSH2 0x9A5 JUMPI PUSH2 0x9A5 PUSH2 0xA1F JUMP JUMPDEST PUSH1 0x20 MUL ADD MLOAD SWAP4 SWAP3 POP POP POP JUMP JUMPDEST PUSH1 0x0 PUSH1 0x20 DUP3 DUP5 SUB SLT ISZERO PUSH2 0x9C3 JUMPI PUSH1 0x0 DUP1 REVERT JUMPDEST POP CALLDATALOAD SWAP2 SWAP1 POP JUMP JUMPDEST PUSH1 0x0 PUSH1 0x20 DUP1 DUP4 MSTORE DUP4 MLOAD DUP1 DUP3 DUP6 ADD MSTORE PUSH1 0x0 JUMPDEST DUP2 DUP2 LT ISZERO PUSH2 0x9F7 JUMPI DUP6 DUP2 ADD DUP4 ADD MLOAD DUP6 DUP3 ADD PUSH1 0x40 ADD MSTORE DUP3 ADD PUSH2 0x9DB JUMP JUMPDEST DUP2 DUP2 GT ISZERO PUSH2 0xA09 JUMPI PUSH1 0x0 PUSH1 0x40 DUP4 DUP8 ADD ADD MSTORE JUMPDEST POP PUSH1 0x1F ADD PUSH1 0x1F NOT AND SWAP3 SWAP1 SWAP3 ADD PUSH1 0x40 ADD SWAP4 SWAP3 POP POP POP JUMP JUMPDEST PUSH4 0x4E487B71 PUSH1 0xE0 SHL PUSH1 0x0 MSTORE PUSH1 0x32 PUSH1 0x4 MSTORE PUSH1 0x24 PUSH1 0x0 REVERT INVALID LOG2 PUSH5 0x6970667358 0x22 SLT KECCAK256 0xC6 DUP2 CALLVALUE PUSH19 0x5482F02760B02111FC6175FFCC27CD441A7ABA 0xD6 0xEB 0x1F 0xAC CALLDATACOPY SGT 0xDF NOT PUSH10 0x64736F6C634300080D00 CALLER ",
  "sha1": "4516cab94363bc3d88d4f44b93e2dd090ee1652a",
  "source": "// SPDX-License-Identifier: MIT\npragma solidity ^0.8.4;\n\ncontract Face {\n    function get(uint256 i) external view returns(string memory){\n        string[1] memory faces = [\n            string(abi.encodePacked('<path fill=\"#000\" d=\"M808.587 456.926c-6.723-2.742-12.721-7.316-17.106-13.16-1.524-2.031-1.92-4.177-1.6-6.139.36-2.206 1.665-4.205 3.445-5.547 1.786-1.345 4.019-2.008 6.178-1.67 1.877.294 3.744 1.321 5.223 3.452l.308.426c2.607 3.527 6.005 6.42 9.875 8.286 3.731 1.798 7.904 2.637 12.222 2.149 8.224-.929 13.892-5.377 19.917-11.417.747-.762 1.494-1.549 2.245-2.348a3.528 3.528 0 0 1 1.863-1.434 4.003 4.003 0 0 1 2.569.038 4.074 4.074 0 0 1 2.021 1.532c.462.678.724 1.516.639 2.48-.551 6.259-3.824 11.845-8.472 16.231-5.162 4.872-12.005 8.242-18.448 9.424-7.098 1.302-14.33.369-20.879-2.303zm24.227-96.559c7.552 4.59 19.058 15.293 10.934 26.672-9.562 10.034-23.33-1.47-30.114-6.673-6.291-4.032-13.359 6.338-7.522 11.047 49.024 36.295 68.919-29.846 30.522-36.443-4.228-.727-5.798 3.977-3.82 5.397zm-87.851-42.221c.835-10.356 16.607-12.708 18.176-2.46 1.405 9.18-.249 17.613-4.384 25.878-3.951 7.896-13.881 4.212-14.632-2.978-1.007-9.638.321-13.998.84-20.44zm120.064-4.585c2.199-2.88 5.374-4.846 9.178-3.735 11.885 3.473 8.382 20.346 4.208 28.559-2.268 4.46-9.599 5.591-12.912 1.664-5.4-6.404-7.986-19.193-1.121-25.501.186-.326.393-.655.647-.987zM758.588 272.83l1.877-.328c5.808-1.005 13.029-1.97 17.138 2.699 2.179 2.476 2.929 7.078 0 9.448-5.152 4.17-10.848 2.554-17.022 2.907a67.731 67.731 0 0 0-14.879 2.535c-10.752 3.073-19.513 8.683-28.696 14.843-1.205.808-2.435-.733-1.86-1.86 5.301-10.383 15.574-18.912 25.864-24.111 5.492-2.775 11.502-5.077 17.578-6.133zm95.605-4.651 1.437.294c15.637 3.269 35.953 9.798 43.358 25.158.283 2.171-.016 2.637-.258 2.941l-.081.101c-.199.26-.359.618-1.3.914a39.904 39.904 0 0 1-.792-.199c-3.394-.889-6.08-2.114-8.68-3.386l-2.819-1.389c-3.27-1.603-6.57-3.149-10.066-4.289-7.462-2.434-15.138-4.149-22.932-5.065-1.69-.198-3.316-.768-4.6-1.745a6.91 6.91 0 0 1-2.573-3.919c-.55-2.209-.392-3.881.793-5.874a7.449 7.449 0 0 1 3.631-3.13c1.493-.607 3.192-.75 4.882-.412z\"/>'))\n        ];\n        return faces[i];\n    }\n}",
  "sourcePath": "contracts/Face.sol",
  "type": "contract"
}