{
  "abi": [
    {
      "inputs": [
        {
          "internalType": "uint256",
          "name": "i",
          "type": "uint256"
        },
        {
          "internalType": "string",
          "name": "skinColor",
          "type": "string"
        }
      ],
      "name": "get",
      "outputs": [
        {
          "internalType": "string",
          "name": "",
          "type": "string"
        }
      ],
      "stateMutability": "view",
      "type": "function"
    }
  ],
  "bytecode": "608060405234801561001057600080fd5b50611bd2806100206000396000f3fe608060405234801561001057600080fd5b506004361061002b5760003560e01c8063805da4ad14610030575b600080fd5b61004361003e366004611a76565b610059565b6040516100509190611b31565b60405180910390f35b606060006040518060200160405280604051602001611a2d907f3c706174682066696c6c3d227265642220643d224d3735372e3034322031313581527f2e3531376335362e3738312030203131352e3531312034342e3439362031333660208201527f2e3332352037322e38392032342e3036362033322e3833322034332e3035312060408201527f3139302e3434342033342e313435203234332e3932352d382e3930362035332e60608201527f3438312d35332e313435203131312e3737322d3132392e393434203131312e3760808201527f37322d37362e37393820302d3132332e3533362d392e3536342d3132352e343160a08201527f2d32332e3435352d312e3837342d31332e3839312d35302e3635342d39312e3260c08201527f31312d35302e3635342d39312e323131732d34392e38392d31342e3138372d3560e08201527f302e3038352d34382e303735632d2e3139352d33332e3838372032362e3733356101008201527f2d34362e3231362032362e3733352d34362e323136732d392e3630322d3133336101208201527f2e3733352031342e35382d3136382e3535336332342e3138322d33342e3831386101408201527f2038372e3532382d35312e303737203134342e3330382d35312e3037377a222f6101608201527f3e3c706174682066696c6c3d22233030302220643d224d3739302e31303520346101808201527f372e373163382e3932382d312e39392031322e35362031312e39373520332e376101a08201527f34342031332e353236613230352e3538203230352e35382030203020302d31386101c08201527f2e30353320342e303163322e3433382d2e31343620342e3835372e31323620376101e08201527f2e3230372e39346c312e3338382d2e34396331392e3233372d362e37333420346102008201527f302e3130392d31312e3831352036302e3333342d362e3633392031362e3538346102208201527f2031322e30392d32342e3133342031332e39342d33302e3639382031352e35336102408201527f382032312e39303920312e33342034342e3636362d332e3637332036352e39356102608201527f3320342e33313920382e31363720332e323920342e3932312031352e3939382d6102808201527f392e3631362031302e31333461372e37303820372e373038203020302031202e6102a08201527f32383320332e32373363362e35392e3635392031332e34313720322e343738206102c08201527f31392e34303920362e33322034342e37342d312e3131362036302e38363720336102e08201527f352e3639362032332e3230342032322e39376131322e34382031322e343820306103008201527f2030203120322e34383120322e3737326c2e35392e30343463392e39382e38316103208201527f322033362e33343220362e3631382033342e3933392031382e36383820362e396103408201527f313320312e3532362031342e34343920342e3039382031392e36373720382e326103608201527f373220352e38353120342e3637322d2e3533322031332e3731332d362e3939356103808201527f2031312e3936392d312e3935352d2e3532382d332e3737392d312e3337342d356103a08201527f2e3536392d322e3330332d2e3730312e3737332d312e36303420312e3534332d6103c08201527f322e37343520322e3330322031312e32363420392e3232352032362e313920316103e08201527f362e3937332033322e3034352033302e38373820312e30353120332e3334342d6104008201527f312e32343120372e3334322d342e36353320382e3136322d31312e38373620326104208201527f2e3835332d32312e3631352d362e3336322d32392e3733352d31352e313335206104408201527f312e37343820342e38333420322e39303820392e35323120332e3232322031336104608201527f2e36353920362e31373820332e3333372031342e303620392e38392031392e326104808201527f39312031372e33343320382e36363120342e3934372031392e3433352031332e6104a08201527f3036362031392e3639342032332e31332e31383920372e3331392d362e3836386104c08201527f2031312e3334392d31332e3336392031302e3134366c2d2e3231392d2e3035316104e08201527f63332e30393920352e34303720342e36342031312e323620352e36382031372e6105008201527f3732336c2e3633342e33393563362e31333320332e3835312031322e323832206105208201527f382e3535382031322e3436322031362e3138312e313320352e3833332d352e366105408201527f323320392e3530382d31302e39353920382e3331346131322e3037362031322e6105608201527f3037362030203020312d322e3134322d2e373031632e3032332e3139362e30346105808201527f352e3339322e3036322e35383920322e31363320312e36353820342e333037206105a08201527f332e33333520362e33393220352e3038396c312e37313420312e34353263372e6105c08201527f31323320362e3130362031332e3838332031322e3939312031312e38303320326105e08201527f332e32372d2e373120332e3531382d342e323420352e3334372d372e343820356106008201527f2e3637312d2e3731352e3037322d312e3430372e3037382d322e3038382e30356106208201527f346c2e3237362e37323963342e3438322031322e30353720372e3333322033316106408201527f2e3330342d372e3037392032392e36343620322e3235362031392e3637372d396106608201527f2e3533342032322e3630342d31372e3539342031322e37313820392e343937206106808201527f31312e3431372032362e3738352038332e3637312d332e34322037302e3832366106a08201527f2d312e3333312031362e3134342d342e3236372033322e3530362d31312e35386106c08201527f2034372e3130396c2d2e3231322e343831632d332e373320382e3138352d32306106e08201527f2e3135382033322e3435392d32352e3436382031342e36393320332e38312d326107008201527f322e3033332031342e3638312d34322e3934322031362e3433352d36352e35326107208201527f312d322e3133342d2e3333372d332e3935362d322e3432352d342e3734382d346107408201527f2e3732372d322e3239392031312e3537342d372e3537322032312e3932352d316107608201527f342e3832322033312e313031613131312e363139203131312e363139203020306107808201527f20312d332e38363620392e313432632d342e35363120392e3630342d31302e346107a08201527f34312031382e3530312d31372e31372032362e36382d332e3620342e3337372d6107c08201527f372e343220382e3633342d31322e31322031312e3833382d332e37343120322e6107e08201527f3534382d382e31313120342e3232372d31322e33323120352e3834342d362e386108008201527f343920362e3931362d31352e3633392031322e3134322d32342e3232392031366108208201527f2e3331382d31342e313620362e3836342d32392e35312031302e3635362d34356108408201527f2e30342031322e3535362d31352e383820312e39332d33312e393220312e34366108608201527f362d34372e36372d312e3239342d31352e30352d322e3632382d33312e3138316108808201527f2d392e3335312d34302e34352d32322e3136312d2e382d312e3130322e3638396108a08201527f2d322e31343320312e3636392d312e3638382032362e3930312031322e3538376108c08201527f2035372e31332031352e3837332038362e3435312031312e3839392031332e366108e08201527f37392d312e38352032372e3133392d352e3637312033392e36332d31312e36306109008201527f362031302e35342d352e3030342031392e3432392d31322e3238342032382e386109208201527f38392d31382e38373520312e3834312d322e34373720332e372d342e393134206109408201527f352e3832312d372e3137386c332e3330392d332e35303863322e3437332d322e6109608201527f36333620342e3930312d352e33303620372e31312d382e313920362e3832312d6109808201527f382e3838362031322e34372d31382e3936362031362e3230312d32392e3537316109a08201527f20372e3235352d32302e36343520352e3239332d34332e30353420342e3031316109c08201527f2d36342e3536386c2d2e3131312d312e383936613935342e3838203935342e386109e08201527f382030203020302d352e3239312d35392e353436632d312e3731332d2e353633610a008201527f2d332e3335352d312e3533322d342e3730342d322e3732352d352e3333372d33610a208201527f332e3634362d32302e3732322d36382e3032372d34362e37312d39302e373232610a408201527f2031352e3232332032312e3431332032332e38362034352e3735382032352e36610a608201527f35322037322e3235392e333120342e3630342d352e393320342e3535332d372e610a808201527f3338372e3939372d31342e3436352d33382e3231362d32312e3832392d37392e610aa08201527f34342d36362e3037312d39342e3338342d31372e35362032332e3936382d3235610ac08201527f2e3233372035332e3036382d34302e3032322037382e34342d332e3734332035610ae08201527f2e3930392d31312e383920332e3037372d31322e3530312d332e3337322d312e610b008201527f3732312d31382e31383720352e3532322d33362e3233392031342e3531322d35610b208201527f322e3134396c2d372e33313620382e383438632d35362e3334352036382e3238610b408201527f312d36302e39352037382e3437392d35342e383938203138332e3037382d2e35610b608201527f353120352e3233332d372e323320372e37322d31302e32383720322e3737342d610b808201527f31372e3136392d33332e3133362d392e3830312d37332e3834332d342e392d31610ba08201527f30392e323536613331392e353839203331392e3538392030203020302d352e30610bc08201527f37362031302e353936632d312e3130392d332e3632352d332e30362e3430332d610be08201527f322e35393620352e3737342d322e393820362e3738382d352e3739322031332e610c008201527f3737332d382e33332032302e3839352e3136312032322e36373120372e363235610c208201527f2034342e33343720372e36342036362e3938342e35303420362e33322d372e39610c408201527f363120372e3239392d31302e39393420322e3936362d322e3538392d332e3639610c608201527f392d342e3939362d372e3236352d372e3038382d31312e3033312e3239392039610c808201527f2e34353620342e3037342031372e383520362e3637312032362e37303120312e610ca08201527f37373320332e31353720322e35383620362e34343120312e34333120392e3939610cc08201527f386c2d2e3131382e333435632d312e39303220352e3833352d382e3836372037610ce08201527f2e3037382d31332e32353320332e3038342e30393620332e3639332d2e323320610d008201527f372e3431342d312e33342031302e38393520342e36373820362e30373520382e610d208201527f39382031322e3337342031322e3137342031392e33363520312e38333120342e610d408201527f3334322d2e36343320372e39362d342e323320392e37313520322e3939362037610d608201527f2e35353920342e3233332031352e33383120312e3632322032322e3836332d2e610d808201527f373820322e3235342d342e303420332e3036332d352e3331312e3639372d342e610da08201527f31372d372e3738342d362e352d31362e3335382d31302e34362d32342e323333610dc08201527f613131322e3437203131322e34372030203020302d322e3238382d342e333031610de08201527f632d342e3434342d332e3831332d382e3036322d382e3433372d31312e343835610e008201527f2d31332e3332312d31322e3237342031342e3538332d32332e38382d31362e36610e208201527f372d32362e3037372d32362e3138336c2d2e3938312d2e39313763322e333739610e408201527f2032322e3535362031352e3638372034332e3138362031352e3930352036352e610e608201527f3833322d2e34373820342e3731382d352e35393520392e3036322d31302e3331610e808201527f20352e3839332d31362e33352d31322e33352d31392e3833322d33342e363836610ea08201527f2d32342e3336322d35332e34323861372e36363220372e363632203020302031610ec08201527f2d322e3238362e373031632d2e3836312031322e3638312032382e3430332035610ee08201527f332e36383220342e3639352035332e3734342d32362e3234352d31332e333833610f008201527f2d32332e3237322d35312e3937342d32362e3739372d37362e3939332d312e36610f208201527f303420372e34352d2e3138382031392e3638392d352e3536332032352e303932610f408201527f2032322e3830352035352e3938372d31352e3536312033382e31332d32352e30610f608201527f32342d332e3736392d312e31343920312e3639332d322e35333220332e32332d610f808201527f342e32313720342e3534392d332e34343620322e3639362d382e30303620322e610fa08201527f3630392d31302e3533362d312e3335322d352e3230382d382e3135342d332e33610fc08201527f36332d31372e3832382d312e3137362d32362e3831342d32302e3233332d382e610fe08201527f3833392d32382e3930372d32392e3239322d33302e3435352d35302e393832616110008201527f32352e3031372032352e3031372030203020312d312e3720322e323636632d326110208201527f2e34323420322e3834362d372e333120312e3833322d392e3034322d312e31366110408201527f2d352e3036322d382e3734392d322e362d31392e38383520312e3635312d32396110608201527f2e3330352d312e3335312d2e3537322d322e3535332d312e3434382d332e33356110808201527f332d322e3630322d362e3932392d31312e3439382d392e3036372d32342e34386110a08201527f352d382e3334392d33372e3637346132322e3537352032322e353735203020306110c08201527f20312d332e30383720322e363038632d332e34323220322e3338322d372e37376110e08201527f332d2e32312d382e3934352d332e3632362d332e3739322d31312e303520342e6111008201527f3735352d32322e3231392031312e3935362d32392e37303520322e3533332d326111208201527f2e36333220352e3431372d352e31343520382e3536322d372e32373320312e356111408201527f2d342e31353420332e31312d382e31393220342e3736312d31322e3035392d326111608201527f2e3431372d342e3839352d332e3738392d31302e3135332d342e3334332d31356111808201527f2e3538392d322e30343620332e3335352d342e35393420362e3334322d382e326111a08201527f383920382e3630352d332e34333120322e3130322d372e3336382d2e3637332d6111c08201527f372e3538392d342e3333372d2e3636362d31312e30353720382e3033362d32306111e08201527f2e3738372031342e3534322d32382e3938386c2e3635332d2e38343763312e316112008201527f352d312e35313720322e3935352d332e39353120352e30312d362e3232362e336112208201527f332d2e3939362e3637332d312e39383820312e3032392d322e3937332d352e306112408201527f343920322e3733312d31322e3833372e3733322d31322e3339352d362e3334206112608201527f312e30312d32322e3932372032352e3130352d33342e3034322033322e3039326112808201527f2d35342e3330362d33352e3431322033312e3734312d33312e3633352d392e306112a08201527f33352d362e3732362d32342e38393420312e3939342d312e36363920342e30356112c08201527f322d332e32333820362e3133392d342e3735372d322e3834312d312e3739362d6112e08201527f332e37322d352e3830312d312e3130322d382e36393720372e3237362d382e306113008201527f352031382e33342d392e3731342032382e37312d31302e35393320332e3730376113208201527f2d2e33313520372e3332392d2e33352031302e3937362d2e3036336c2e3939366113408201527f2e3038372e3238332d2e30383163322e3431312d322e38353420352e3131372d6113608201527f352e34373320372e3639382d372e3732342d31392e3630372d332e3734332d316113808201527f2e3031392d33322e34322034332e3738332d32312e39386138382e342038382e6113a08201527f3420302030203120372e3533332d332e333836632d362e3638352d2e3332322d6113c08201527f31332e33352d2e3933312d31392e3936372d322e3238382d352e3839372d312e6113e08201527f3230392d362e3838352d31302e3130372d312e3638322d31322e38322032302e6114008201527f3830332d31302e3339322034342e3830322d372e3832362036372e3038392d326114208201527f2e3630332d2e3534352d312e3032392d2e382d322e3137332d2e3831312d332e6114408201527f3335312d372e3338342d2e3731362d382e3033382d31322e3038362e3436322d6114608201527f31322e3733392031342e3236322d312e3039362032372e39303520312e3637386114808201527f2034302e35303520372e3139346135382e3237352035382e32373520302030206114a08201527f3120342e3836382d2e33363363322e3337362d32352e3036362033352e3138326114c08201527f2d342e3237382034322e33393520372e3738362031342e3239382d382e3937206114e08201527f32392e3532362d31352e38312034362e3033362d31392e3431367a222f3e000061150082015261151e0190565b6040516020818303038152906040528152509050808460018110611a5357611a53611b86565b6020020151949350505050565b634e487b7160e01b600052604160045260246000fd5b60008060408385031215611a8957600080fd5b82359150602083013567ffffffffffffffff80821115611aa857600080fd5b818501915085601f830112611abc57600080fd5b813581811115611ace57611ace611a60565b604051601f8201601f19908116603f01168101908382118183101715611af657611af6611a60565b81604052828152886020848701011115611b0f57600080fd5b8260208601602083013760006020848301015280955050505050509250929050565b600060208083528351808285015260005b81811015611b5e57858101830151858201604001528201611b42565b81811115611b70576000604083870101525b50601f01601f1916929092016040019392505050565b634e487b7160e01b600052603260045260246000fdfea264697066735822122009a8dd9f63bd58ddb461d9dc567f9598a8d14b347a2850d8f5c9ffb63349740664736f6c634300080d0033",
  "bytecodeSha1": "7af14ef733de7202dce9d846c754d94e26c107f1",
  "compiler": {
    "evm_version": "istanbul",
    "optimizer": {
      "enabled": true,
      "runs": 200
    },
    "version": "0.8.13+commit.abaa5c0e"
  },
  "contractName": "Head",
  "language": "Solidity",
  "natspec": {
    "kind": "dev",
    "methods": {},
    "version": 1
  },
  "opcodes": "PUSH1 0x80 PUSH1 0x40 MSTORE CALLVALUE DUP1 ISZERO PUSH2 0x10 JUMPI PUSH1 0x0 DUP1 REVERT JUMPDEST POP PUSH1 0x4 CALLDATASIZE LT PUSH2 0x2B JUMPI PUSH1 0x0 CALLDATALOAD PUSH1 0xE0 SHR DUP1 PUSH4 0x805DA4AD EQ PUSH2 0x30 JUMPI JUMPDEST PUSH1 0x0 DUP1 REVERT JUMPDEST PUSH2 0x43 PUSH2 0x3E CALLDATASIZE PUSH1 0x4 PUSH2 0x1A76 JUMP JUMPDEST PUSH2 0x59 JUMP JUMPDEST PUSH1 0x40 MLOAD PUSH2 0x50 SWAP2 SWAP1 PUSH2 0x1B31 JUMP JUMPDEST PUSH1 0x40 MLOAD DUP1 SWAP2 SUB SWAP1 RETURN JUMPDEST PUSH1 0x60 PUSH1 0x0 PUSH1 0x40 MLOAD DUP1 PUSH1 0x20 ADD PUSH1 0x40 MSTORE DUP1 PUSH1 0x40 MLOAD PUSH1 0x20 ADD PUSH2 0x1A2D SWAP1 PUSH32 0x3C706174682066696C6C3D227265642220643D224D3735372E30343220313135 DUP2 MSTORE PUSH32 0x2E3531376335362E3738312030203131352E3531312034342E34393620313336 PUSH1 0x20 DUP3 ADD MSTORE PUSH32 0x2E3332352037322E38392032342E3036362033322E3833322034332E30353120 PUSH1 0x40 DUP3 ADD MSTORE PUSH32 0x3139302E3434342033342E313435203234332E3932352D382E3930362035332E PUSH1 0x60 DUP3 ADD MSTORE PUSH32 0x3438312D35332E313435203131312E3737322D3132392E393434203131312E37 PUSH1 0x80 DUP3 ADD MSTORE PUSH32 0x37322D37362E37393820302D3132332E3533362D392E3536342D3132352E3431 PUSH1 0xA0 DUP3 ADD MSTORE PUSH32 0x2D32332E3435352D312E3837342D31332E3839312D35302E3635342D39312E32 PUSH1 0xC0 DUP3 ADD MSTORE PUSH32 0x31312D35302E3635342D39312E323131732D34392E38392D31342E3138372D35 PUSH1 0xE0 DUP3 ADD MSTORE PUSH32 0x302E3038352D34382E303735632D2E3139352D33332E3838372032362E373335 PUSH2 0x100 DUP3 ADD MSTORE PUSH32 0x2D34362E3231362032362E3733352D34362E323136732D392E3630322D313333 PUSH2 0x120 DUP3 ADD MSTORE PUSH32 0x2E3733352031342E35382D3136382E3535336332342E3138322D33342E383138 PUSH2 0x140 DUP3 ADD MSTORE PUSH32 0x2038372E3532382D35312E303737203134342E3330382D35312E3037377A222F PUSH2 0x160 DUP3 ADD MSTORE PUSH32 0x3E3C706174682066696C6C3D22233030302220643D224D3739302E3130352034 PUSH2 0x180 DUP3 ADD MSTORE PUSH32 0x372E373163382E3932382D312E39392031322E35362031312E39373520332E37 PUSH2 0x1A0 DUP3 ADD MSTORE PUSH32 0x34342031332E353236613230352E3538203230352E35382030203020302D3138 PUSH2 0x1C0 DUP3 ADD MSTORE PUSH32 0x2E30353320342E303163322E3433382D2E31343620342E3835372E3132362037 PUSH2 0x1E0 DUP3 ADD MSTORE PUSH32 0x2E3230372E39346C312E3338382D2E34396331392E3233372D362E3733342034 PUSH2 0x200 DUP3 ADD MSTORE PUSH32 0x302E3130392D31312E3831352036302E3333342D362E3633392031362E353834 PUSH2 0x220 DUP3 ADD MSTORE PUSH32 0x2031322E30392D32342E3133342031332E39342D33302E3639382031352E3533 PUSH2 0x240 DUP3 ADD MSTORE PUSH32 0x382032312E39303920312E33342034342E3636362D332E3637332036352E3935 PUSH2 0x260 DUP3 ADD MSTORE PUSH32 0x3320342E33313920382E31363720332E323920342E3932312031352E3939382D PUSH2 0x280 DUP3 ADD MSTORE PUSH32 0x392E3631362031302E31333461372E37303820372E373038203020302031202E PUSH2 0x2A0 DUP3 ADD MSTORE PUSH32 0x32383320332E32373363362E35392E3635392031332E34313720322E34373820 PUSH2 0x2C0 DUP3 ADD MSTORE PUSH32 0x31392E34303920362E33322034342E37342D312E3131362036302E3836372033 PUSH2 0x2E0 DUP3 ADD MSTORE PUSH32 0x352E3639362032332E3230342032322E39376131322E34382031322E34382030 PUSH2 0x300 DUP3 ADD MSTORE PUSH32 0x2030203120322E34383120322E3737326C2E35392E30343463392E39382E3831 PUSH2 0x320 DUP3 ADD MSTORE PUSH32 0x322033362E33343220362E3631382033342E3933392031382E36383820362E39 PUSH2 0x340 DUP3 ADD MSTORE PUSH32 0x313320312E3532362031342E34343920342E3039382031392E36373720382E32 PUSH2 0x360 DUP3 ADD MSTORE PUSH32 0x373220352E38353120342E3637322D2E3533322031332E3731332D362E393935 PUSH2 0x380 DUP3 ADD MSTORE PUSH32 0x2031312E3936392D312E3935352D2E3532382D332E3737392D312E3337342D35 PUSH2 0x3A0 DUP3 ADD MSTORE PUSH32 0x2E3536392D322E3330332D2E3730312E3737332D312E36303420312E3534332D PUSH2 0x3C0 DUP3 ADD MSTORE PUSH32 0x322E37343520322E3330322031312E32363420392E3232352032362E31392031 PUSH2 0x3E0 DUP3 ADD MSTORE PUSH32 0x362E3937332033322E3034352033302E38373820312E30353120332E3334342D PUSH2 0x400 DUP3 ADD MSTORE PUSH32 0x312E32343120372E3334322D342E36353320382E3136322D31312E3837362032 PUSH2 0x420 DUP3 ADD MSTORE PUSH32 0x2E3835332D32312E3631352D362E3336322D32392E3733352D31352E31333520 PUSH2 0x440 DUP3 ADD MSTORE PUSH32 0x312E37343820342E38333420322E39303820392E35323120332E323232203133 PUSH2 0x460 DUP3 ADD MSTORE PUSH32 0x2E36353920362E31373820332E3333372031342E303620392E38392031392E32 PUSH2 0x480 DUP3 ADD MSTORE PUSH32 0x39312031372E33343320382E36363120342E3934372031392E3433352031332E PUSH2 0x4A0 DUP3 ADD MSTORE PUSH32 0x3036362031392E3639342032332E31332E31383920372E3331392D362E383638 PUSH2 0x4C0 DUP3 ADD MSTORE PUSH32 0x2031312E3334392D31332E3336392031302E3134366C2D2E3231392D2E303531 PUSH2 0x4E0 DUP3 ADD MSTORE PUSH32 0x63332E30393920352E34303720342E36342031312E323620352E36382031372E PUSH2 0x500 DUP3 ADD MSTORE PUSH32 0x3732336C2E3633342E33393563362E31333320332E3835312031322E32383220 PUSH2 0x520 DUP3 ADD MSTORE PUSH32 0x382E3535382031322E3436322031362E3138312E313320352E3833332D352E36 PUSH2 0x540 DUP3 ADD MSTORE PUSH32 0x323320392E3530382D31302E39353920382E3331346131322E3037362031322E PUSH2 0x560 DUP3 ADD MSTORE PUSH32 0x3037362030203020312D322E3134322D2E373031632E3032332E3139362E3034 PUSH2 0x580 DUP3 ADD MSTORE PUSH32 0x352E3339322E3036322E35383920322E31363320312E36353820342E33303720 PUSH2 0x5A0 DUP3 ADD MSTORE PUSH32 0x332E33333520362E33393220352E3038396C312E37313420312E34353263372E PUSH2 0x5C0 DUP3 ADD MSTORE PUSH32 0x31323320362E3130362031332E3838332031322E3939312031312E3830332032 PUSH2 0x5E0 DUP3 ADD MSTORE PUSH32 0x332E32372D2E373120332E3531382D342E323420352E3334372D372E34382035 PUSH2 0x600 DUP3 ADD MSTORE PUSH32 0x2E3637312D2E3731352E3037322D312E3430372E3037382D322E3038382E3035 PUSH2 0x620 DUP3 ADD MSTORE PUSH32 0x346C2E3237362E37323963342E3438322031322E30353720372E333332203331 PUSH2 0x640 DUP3 ADD MSTORE PUSH32 0x2E3330342D372E3037392032392E36343620322E3235362031392E3637372D39 PUSH2 0x660 DUP3 ADD MSTORE PUSH32 0x2E3533342032322E3630342D31372E3539342031322E37313820392E34393720 PUSH2 0x680 DUP3 ADD MSTORE PUSH32 0x31312E3431372032362E3738352038332E3637312D332E34322037302E383236 PUSH2 0x6A0 DUP3 ADD MSTORE PUSH32 0x2D312E3333312031362E3134342D342E3236372033322E3530362D31312E3538 PUSH2 0x6C0 DUP3 ADD MSTORE PUSH32 0x2034372E3130396C2D2E3231322E343831632D332E373320382E3138352D3230 PUSH2 0x6E0 DUP3 ADD MSTORE PUSH32 0x2E3135382033322E3435392D32352E3436382031342E36393320332E38312D32 PUSH2 0x700 DUP3 ADD MSTORE PUSH32 0x322E3033332031342E3638312D34322E3934322031362E3433352D36352E3532 PUSH2 0x720 DUP3 ADD MSTORE PUSH32 0x312D322E3133342D2E3333372D332E3935362D322E3432352D342E3734382D34 PUSH2 0x740 DUP3 ADD MSTORE PUSH32 0x2E3732372D322E3239392031312E3537342D372E3537322032312E3932352D31 PUSH2 0x760 DUP3 ADD MSTORE PUSH32 0x342E3832322033312E313031613131312E363139203131312E36313920302030 PUSH2 0x780 DUP3 ADD MSTORE PUSH32 0x20312D332E38363620392E313432632D342E35363120392E3630342D31302E34 PUSH2 0x7A0 DUP3 ADD MSTORE PUSH32 0x34312031382E3530312D31372E31372032362E36382D332E3620342E3337372D PUSH2 0x7C0 DUP3 ADD MSTORE PUSH32 0x372E343220382E3633342D31322E31322031312E3833382D332E37343120322E PUSH2 0x7E0 DUP3 ADD MSTORE PUSH32 0x3534382D382E31313120342E3232372D31322E33323120352E3834342D362E38 PUSH2 0x800 DUP3 ADD MSTORE PUSH32 0x343920362E3931362D31352E3633392031322E3134322D32342E323239203136 PUSH2 0x820 DUP3 ADD MSTORE PUSH32 0x2E3331382D31342E313620362E3836342D32392E35312031302E3635362D3435 PUSH2 0x840 DUP3 ADD MSTORE PUSH32 0x2E30342031322E3535362D31352E383820312E39332D33312E393220312E3436 PUSH2 0x860 DUP3 ADD MSTORE PUSH32 0x362D34372E36372D312E3239342D31352E30352D322E3632382D33312E313831 PUSH2 0x880 DUP3 ADD MSTORE PUSH32 0x2D392E3335312D34302E34352D32322E3136312D2E382D312E3130322E363839 PUSH2 0x8A0 DUP3 ADD MSTORE PUSH32 0x2D322E31343320312E3636392D312E3638382032362E3930312031322E353837 PUSH2 0x8C0 DUP3 ADD MSTORE PUSH32 0x2035372E31332031352E3837332038362E3435312031312E3839392031332E36 PUSH2 0x8E0 DUP3 ADD MSTORE PUSH32 0x37392D312E38352032372E3133392D352E3637312033392E36332D31312E3630 PUSH2 0x900 DUP3 ADD MSTORE PUSH32 0x362031302E35342D352E3030342031392E3432392D31322E3238342032382E38 PUSH2 0x920 DUP3 ADD MSTORE PUSH32 0x38392D31382E38373520312E3834312D322E34373720332E372D342E39313420 PUSH2 0x940 DUP3 ADD MSTORE PUSH32 0x352E3832312D372E3137386C332E3330392D332E35303863322E3437332D322E PUSH2 0x960 DUP3 ADD MSTORE PUSH32 0x36333620342E3930312D352E33303620372E31312D382E313920362E3832312D PUSH2 0x980 DUP3 ADD MSTORE PUSH32 0x382E3838362031322E34372D31382E3936362031362E3230312D32392E353731 PUSH2 0x9A0 DUP3 ADD MSTORE PUSH32 0x20372E3235352D32302E36343520352E3239332D34332E30353420342E303131 PUSH2 0x9C0 DUP3 ADD MSTORE PUSH32 0x2D36342E3536386C2D2E3131312D312E383936613935342E3838203935342E38 PUSH2 0x9E0 DUP3 ADD MSTORE PUSH32 0x382030203020302D352E3239312D35392E353436632D312E3731332D2E353633 PUSH2 0xA00 DUP3 ADD MSTORE PUSH32 0x2D332E3335352D312E3533322D342E3730342D322E3732352D352E3333372D33 PUSH2 0xA20 DUP3 ADD MSTORE PUSH32 0x332E3634362D32302E3732322D36382E3032372D34362E37312D39302E373232 PUSH2 0xA40 DUP3 ADD MSTORE PUSH32 0x2031352E3232332032312E3431332032332E38362034352E3735382032352E36 PUSH2 0xA60 DUP3 ADD MSTORE PUSH32 0x35322037322E3235392E333120342E3630342D352E393320342E3535332D372E PUSH2 0xA80 DUP3 ADD MSTORE PUSH32 0x3338372E3939372D31342E3436352D33382E3231362D32312E3832392D37392E PUSH2 0xAA0 DUP3 ADD MSTORE PUSH32 0x34342D36362E3037312D39342E3338342D31372E35362032332E3936382D3235 PUSH2 0xAC0 DUP3 ADD MSTORE PUSH32 0x2E3233372035332E3036382D34302E3032322037382E34342D332E3734332035 PUSH2 0xAE0 DUP3 ADD MSTORE PUSH32 0x2E3930392D31312E383920332E3037372D31322E3530312D332E3337322D312E PUSH2 0xB00 DUP3 ADD MSTORE PUSH32 0x3732312D31382E31383720352E3532322D33362E3233392031342E3531322D35 PUSH2 0xB20 DUP3 ADD MSTORE PUSH32 0x322E3134396C2D372E33313620382E383438632D35362E3334352036382E3238 PUSH2 0xB40 DUP3 ADD MSTORE PUSH32 0x312D36302E39352037382E3437392D35342E383938203138332E3037382D2E35 PUSH2 0xB60 DUP3 ADD MSTORE PUSH32 0x353120352E3233332D372E323320372E37322D31302E32383720322E3737342D PUSH2 0xB80 DUP3 ADD MSTORE PUSH32 0x31372E3136392D33332E3133362D392E3830312D37332E3834332D342E392D31 PUSH2 0xBA0 DUP3 ADD MSTORE PUSH32 0x30392E323536613331392E353839203331392E3538392030203020302D352E30 PUSH2 0xBC0 DUP3 ADD MSTORE PUSH32 0x37362031302E353936632D312E3130392D332E3632352D332E30362E3430332D PUSH2 0xBE0 DUP3 ADD MSTORE PUSH32 0x322E35393620352E3737342D322E393820362E3738382D352E3739322031332E PUSH2 0xC00 DUP3 ADD MSTORE PUSH32 0x3737332D382E33332032302E3839352E3136312032322E36373120372E363235 PUSH2 0xC20 DUP3 ADD MSTORE PUSH32 0x2034342E33343720372E36342036362E3938342E35303420362E33322D372E39 PUSH2 0xC40 DUP3 ADD MSTORE PUSH32 0x363120372E3239392D31302E39393420322E3936362D322E3538392D332E3639 PUSH2 0xC60 DUP3 ADD MSTORE PUSH32 0x392D342E3939362D372E3236352D372E3038382D31312E3033312E3239392039 PUSH2 0xC80 DUP3 ADD MSTORE PUSH32 0x2E34353620342E3037342031372E383520362E3637312032362E37303120312E PUSH2 0xCA0 DUP3 ADD MSTORE PUSH32 0x37373320332E31353720322E35383620362E34343120312E34333120392E3939 PUSH2 0xCC0 DUP3 ADD MSTORE PUSH32 0x386C2D2E3131382E333435632D312E39303220352E3833352D382E3836372037 PUSH2 0xCE0 DUP3 ADD MSTORE PUSH32 0x2E3037382D31332E32353320332E3038342E30393620332E3639332D2E323320 PUSH2 0xD00 DUP3 ADD MSTORE PUSH32 0x372E3431342D312E33342031302E38393520342E36373820362E30373520382E PUSH2 0xD20 DUP3 ADD MSTORE PUSH32 0x39382031322E3337342031322E3137342031392E33363520312E38333120342E PUSH2 0xD40 DUP3 ADD MSTORE PUSH32 0x3334322D2E36343320372E39362D342E323320392E37313520322E3939362037 PUSH2 0xD60 DUP3 ADD MSTORE PUSH32 0x2E35353920342E3233332031352E33383120312E3632322032322E3836332D2E PUSH2 0xD80 DUP3 ADD MSTORE PUSH32 0x373820322E3235342D342E303420332E3036332D352E3331312E3639372D342E PUSH2 0xDA0 DUP3 ADD MSTORE PUSH32 0x31372D372E3738342D362E352D31362E3335382D31302E34362D32342E323333 PUSH2 0xDC0 DUP3 ADD MSTORE PUSH32 0x613131322E3437203131322E34372030203020302D322E3238382D342E333031 PUSH2 0xDE0 DUP3 ADD MSTORE PUSH32 0x632D342E3434342D332E3831332D382E3036322D382E3433372D31312E343835 PUSH2 0xE00 DUP3 ADD MSTORE PUSH32 0x2D31332E3332312D31322E3237342031342E3538332D32332E38382D31362E36 PUSH2 0xE20 DUP3 ADD MSTORE PUSH32 0x372D32362E3037372D32362E3138336C2D2E3938312D2E39313763322E333739 PUSH2 0xE40 DUP3 ADD MSTORE PUSH32 0x2032322E3535362031352E3638372034332E3138362031352E3930352036352E PUSH2 0xE60 DUP3 ADD MSTORE PUSH32 0x3833322D2E34373820342E3731382D352E35393520392E3036322D31302E3331 PUSH2 0xE80 DUP3 ADD MSTORE PUSH32 0x20352E3839332D31362E33352D31322E33352D31392E3833322D33342E363836 PUSH2 0xEA0 DUP3 ADD MSTORE PUSH32 0x2D32342E3336322D35332E34323861372E36363220372E363632203020302031 PUSH2 0xEC0 DUP3 ADD MSTORE PUSH32 0x2D322E3238362E373031632D2E3836312031322E3638312032382E3430332035 PUSH2 0xEE0 DUP3 ADD MSTORE PUSH32 0x332E36383220342E3639352035332E3734342D32362E3234352D31332E333833 PUSH2 0xF00 DUP3 ADD MSTORE PUSH32 0x2D32332E3237322D35312E3937342D32362E3739372D37362E3939332D312E36 PUSH2 0xF20 DUP3 ADD MSTORE PUSH32 0x303420372E34352D2E3138382031392E3638392D352E3536332032352E303932 PUSH2 0xF40 DUP3 ADD MSTORE PUSH32 0x2032322E3830352035352E3938372D31352E3536312033382E31332D32352E30 PUSH2 0xF60 DUP3 ADD MSTORE PUSH32 0x32342D332E3736392D312E31343920312E3639332D322E35333220332E32332D PUSH2 0xF80 DUP3 ADD MSTORE PUSH32 0x342E32313720342E3534392D332E34343620322E3639362D382E30303620322E PUSH2 0xFA0 DUP3 ADD MSTORE PUSH32 0x3630392D31302E3533362D312E3335322D352E3230382D382E3135342D332E33 PUSH2 0xFC0 DUP3 ADD MSTORE PUSH32 0x36332D31372E3832382D312E3137362D32362E3831342D32302E3233332D382E PUSH2 0xFE0 DUP3 ADD MSTORE PUSH32 0x3833392D32382E3930372D32392E3239322D33302E3435352D35302E39383261 PUSH2 0x1000 DUP3 ADD MSTORE PUSH32 0x32352E3031372032352E3031372030203020312D312E3720322E323636632D32 PUSH2 0x1020 DUP3 ADD MSTORE PUSH32 0x2E34323420322E3834362D372E333120312E3833322D392E3034322D312E3136 PUSH2 0x1040 DUP3 ADD MSTORE PUSH32 0x2D352E3036322D382E3734392D322E362D31392E38383520312E3635312D3239 PUSH2 0x1060 DUP3 ADD MSTORE PUSH32 0x2E3330352D312E3335312D2E3537322D322E3535332D312E3434382D332E3335 PUSH2 0x1080 DUP3 ADD MSTORE PUSH32 0x332D322E3630322D362E3932392D31312E3439382D392E3036372D32342E3438 PUSH2 0x10A0 DUP3 ADD MSTORE PUSH32 0x352D382E3334392D33372E3637346132322E3537352032322E35373520302030 PUSH2 0x10C0 DUP3 ADD MSTORE PUSH32 0x20312D332E30383720322E363038632D332E34323220322E3338322D372E3737 PUSH2 0x10E0 DUP3 ADD MSTORE PUSH32 0x332D2E32312D382E3934352D332E3632362D332E3739322D31312E303520342E PUSH2 0x1100 DUP3 ADD MSTORE PUSH32 0x3735352D32322E3231392031312E3935362D32392E37303520322E3533332D32 PUSH2 0x1120 DUP3 ADD MSTORE PUSH32 0x2E36333220352E3431372D352E31343520382E3536322D372E32373320312E35 PUSH2 0x1140 DUP3 ADD MSTORE PUSH32 0x2D342E31353420332E31312D382E31393220342E3736312D31322E3035392D32 PUSH2 0x1160 DUP3 ADD MSTORE PUSH32 0x2E3431372D342E3839352D332E3738392D31302E3135332D342E3334332D3135 PUSH2 0x1180 DUP3 ADD MSTORE PUSH32 0x2E3538392D322E30343620332E3335352D342E35393420362E3334322D382E32 PUSH2 0x11A0 DUP3 ADD MSTORE PUSH32 0x383920382E3630352D332E34333120322E3130322D372E3336382D2E3637332D PUSH2 0x11C0 DUP3 ADD MSTORE PUSH32 0x372E3538392D342E3333372D2E3636362D31312E30353720382E3033362D3230 PUSH2 0x11E0 DUP3 ADD MSTORE PUSH32 0x2E3738372031342E3534322D32382E3938386C2E3635332D2E38343763312E31 PUSH2 0x1200 DUP3 ADD MSTORE PUSH32 0x352D312E35313720322E3935352D332E39353120352E30312D362E3232362E33 PUSH2 0x1220 DUP3 ADD MSTORE PUSH32 0x332D2E3939362E3637332D312E39383820312E3032392D322E3937332D352E30 PUSH2 0x1240 DUP3 ADD MSTORE PUSH32 0x343920322E3733312D31322E3833372E3733322D31322E3339352D362E333420 PUSH2 0x1260 DUP3 ADD MSTORE PUSH32 0x312E30312D32322E3932372032352E3130352D33342E3034322033322E303932 PUSH2 0x1280 DUP3 ADD MSTORE PUSH32 0x2D35342E3330362D33352E3431322033312E3734312D33312E3633352D392E30 PUSH2 0x12A0 DUP3 ADD MSTORE PUSH32 0x33352D362E3732362D32342E38393420312E3939342D312E36363920342E3035 PUSH2 0x12C0 DUP3 ADD MSTORE PUSH32 0x322D332E32333820362E3133392D342E3735372D322E3834312D312E3739362D PUSH2 0x12E0 DUP3 ADD MSTORE PUSH32 0x332E37322D352E3830312D312E3130322D382E36393720372E3237362D382E30 PUSH2 0x1300 DUP3 ADD MSTORE PUSH32 0x352031382E33342D392E3731342032382E37312D31302E35393320332E373037 PUSH2 0x1320 DUP3 ADD MSTORE PUSH32 0x2D2E33313520372E3332392D2E33352031302E3937362D2E3036336C2E393936 PUSH2 0x1340 DUP3 ADD MSTORE PUSH32 0x2E3038372E3238332D2E30383163322E3431312D322E38353420352E3131372D PUSH2 0x1360 DUP3 ADD MSTORE PUSH32 0x352E34373320372E3639382D372E3732342D31392E3630372D332E3734332D31 PUSH2 0x1380 DUP3 ADD MSTORE PUSH32 0x2E3031392D33322E34322034332E3738332D32312E39386138382E342038382E PUSH2 0x13A0 DUP3 ADD MSTORE PUSH32 0x3420302030203120372E3533332D332E333836632D362E3638352D2E3332322D PUSH2 0x13C0 DUP3 ADD MSTORE PUSH32 0x31332E33352D2E3933312D31392E3936372D322E3238382D352E3839372D312E PUSH2 0x13E0 DUP3 ADD MSTORE PUSH32 0x3230392D362E3838352D31302E3130372D312E3638322D31322E38322032302E PUSH2 0x1400 DUP3 ADD MSTORE PUSH32 0x3830332D31302E3339322034342E3830322D372E3832362036372E3038392D32 PUSH2 0x1420 DUP3 ADD MSTORE PUSH32 0x2E3630332D2E3534352D312E3032392D2E382D322E3137332D2E3831312D332E PUSH2 0x1440 DUP3 ADD MSTORE PUSH32 0x3335312D372E3338342D2E3731362D382E3033382D31322E3038362E3436322D PUSH2 0x1460 DUP3 ADD MSTORE PUSH32 0x31322E3733392031342E3236322D312E3039362032372E39303520312E363738 PUSH2 0x1480 DUP3 ADD MSTORE PUSH32 0x2034302E35303520372E3139346135382E3237352035382E3237352030203020 PUSH2 0x14A0 DUP3 ADD MSTORE PUSH32 0x3120342E3836382D2E33363363322E3337362D32352E3036362033352E313832 PUSH2 0x14C0 DUP3 ADD MSTORE PUSH32 0x2D342E3237382034322E33393520372E3738362031342E3239382D382E393720 PUSH2 0x14E0 DUP3 ADD MSTORE PUSH32 0x32392E3532362D31352E38312034362E3033362D31392E3431367A222F3E0000 PUSH2 0x1500 DUP3 ADD MSTORE PUSH2 0x151E ADD SWAP1 JUMP JUMPDEST PUSH1 0x40 MLOAD PUSH1 0x20 DUP2 DUP4 SUB SUB DUP2 MSTORE SWAP1 PUSH1 0x40 MSTORE DUP2 MSTORE POP SWAP1 POP DUP1 DUP5 PUSH1 0x1 DUP2 LT PUSH2 0x1A53 JUMPI PUSH2 0x1A53 PUSH2 0x1B86 JUMP JUMPDEST PUSH1 0x20 MUL ADD MLOAD SWAP5 SWAP4 POP POP POP POP JUMP JUMPDEST PUSH4 0x4E487B71 PUSH1 0xE0 SHL PUSH1 0x0 MSTORE PUSH1 0x41 PUSH1 0x4 MSTORE PUSH1 0x24 PUSH1 0x0 REVERT JUMPDEST PUSH1 0x0 DUP1 PUSH1 0x40 DUP4 DUP6 SUB SLT ISZERO PUSH2 0x1A89 JUMPI PUSH1 0x0 DUP1 REVERT JUMPDEST DUP3 CALLDATALOAD SWAP2 POP PUSH1 0x20 DUP4 ADD CALLDATALOAD PUSH8 0xFFFFFFFFFFFFFFFF DUP1 DUP3 GT ISZERO PUSH2 0x1AA8 JUMPI PUSH1 0x0 DUP1 REVERT JUMPDEST DUP2 DUP6 ADD SWAP2 POP DUP6 PUSH1 0x1F DUP4 ADD SLT PUSH2 0x1ABC JUMPI PUSH1 0x0 DUP1 REVERT JUMPDEST DUP2 CALLDATALOAD DUP2 DUP2 GT ISZERO PUSH2 0x1ACE JUMPI PUSH2 0x1ACE PUSH2 0x1A60 JUMP JUMPDEST PUSH1 0x40 MLOAD PUSH1 0x1F DUP3 ADD PUSH1 0x1F NOT SWAP1 DUP2 AND PUSH1 0x3F ADD AND DUP2 ADD SWAP1 DUP4 DUP3 GT DUP2 DUP4 LT OR ISZERO PUSH2 0x1AF6 JUMPI PUSH2 0x1AF6 PUSH2 0x1A60 JUMP JUMPDEST DUP2 PUSH1 0x40 MSTORE DUP3 DUP2 MSTORE DUP9 PUSH1 0x20 DUP5 DUP8 ADD ADD GT ISZERO PUSH2 0x1B0F JUMPI PUSH1 0x0 DUP1 REVERT JUMPDEST DUP3 PUSH1 0x20 DUP7 ADD PUSH1 0x20 DUP4 ADD CALLDATACOPY PUSH1 0x0 PUSH1 0x20 DUP5 DUP4 ADD ADD MSTORE DUP1 SWAP6 POP POP POP POP POP POP SWAP3 POP SWAP3 SWAP1 POP JUMP JUMPDEST PUSH1 0x0 PUSH1 0x20 DUP1 DUP4 MSTORE DUP4 MLOAD DUP1 DUP3 DUP6 ADD MSTORE PUSH1 0x0 JUMPDEST DUP2 DUP2 LT ISZERO PUSH2 0x1B5E JUMPI DUP6 DUP2 ADD DUP4 ADD MLOAD DUP6 DUP3 ADD PUSH1 0x40 ADD MSTORE DUP3 ADD PUSH2 0x1B42 JUMP JUMPDEST DUP2 DUP2 GT ISZERO PUSH2 0x1B70 JUMPI PUSH1 0x0 PUSH1 0x40 DUP4 DUP8 ADD ADD MSTORE JUMPDEST POP PUSH1 0x1F ADD PUSH1 0x1F NOT AND SWAP3 SWAP1 SWAP3 ADD PUSH1 0x40 ADD SWAP4 SWAP3 POP POP POP JUMP JUMPDEST PUSH4 0x4E487B71 PUSH1 0xE0 SHL PUSH1 0x0 MSTORE PUSH1 0x32 PUSH1 0x4 MSTORE PUSH1 0x24 PUSH1 0x0 REVERT INVALID LOG2 PUSH5 0x6970667358 0x22 SLT KECCAK256 MULMOD 0xA8 0xDD SWAP16 PUSH4 0xBD58DDB4 PUSH2 0xD9DC JUMP PUSH32 0x9598A8D14B347A2850D8F5C9FFB63349740664736F6C634300080D0033000000 ",
  "sha1": "bf033636fee633e36c7523a43adacf778b869229",
  "source": "// SPDX-License-Identifier: MIT\npragma solidity ^0.8.4;\n\ncontract Head {\n    function get(uint256 i, string memory skinColor) external view returns(string memory){\n        string[1] memory heads = [\n            string(abi.encodePacked('<path fill=\"red\" d=\"M757.042 115.517c56.781 0 115.511 44.496 136.325 72.89 24.066 32.832 43.051 190.444 34.145 243.925-8.906 53.481-53.145 111.772-129.944 111.772-76.798 0-123.536-9.564-125.41-23.455-1.874-13.891-50.654-91.211-50.654-91.211s-49.89-14.187-50.085-48.075c-.195-33.887 26.735-46.216 26.735-46.216s-9.602-133.735 14.58-168.553c24.182-34.818 87.528-51.077 144.308-51.077z\"/><path fill=\"#000\" d=\"M790.105 47.71c8.928-1.99 12.56 11.975 3.744 13.526a205.58 205.58 0 0 0-18.053 4.01c2.438-.146 4.857.126 7.207.94l1.388-.49c19.237-6.734 40.109-11.815 60.334-6.639 16.584 12.09-24.134 13.94-30.698 15.538 21.909 1.34 44.666-3.673 65.953 4.319 8.167 3.29 4.921 15.998-9.616 10.134a7.708 7.708 0 0 1 .283 3.273c6.59.659 13.417 2.478 19.409 6.32 44.74-1.116 60.867 35.696 23.204 22.97a12.48 12.48 0 0 1 2.481 2.772l.59.044c9.98.812 36.342 6.618 34.939 18.688 6.913 1.526 14.449 4.098 19.677 8.272 5.851 4.672-.532 13.713-6.995 11.969-1.955-.528-3.779-1.374-5.569-2.303-.701.773-1.604 1.543-2.745 2.302 11.264 9.225 26.19 16.973 32.045 30.878 1.051 3.344-1.241 7.342-4.653 8.162-11.876 2.853-21.615-6.362-29.735-15.135 1.748 4.834 2.908 9.521 3.222 13.659 6.178 3.337 14.06 9.89 19.291 17.343 8.661 4.947 19.435 13.066 19.694 23.13.189 7.319-6.868 11.349-13.369 10.146l-.219-.051c3.099 5.407 4.64 11.26 5.68 17.723l.634.395c6.133 3.851 12.282 8.558 12.462 16.181.13 5.833-5.623 9.508-10.959 8.314a12.076 12.076 0 0 1-2.142-.701c.023.196.045.392.062.589 2.163 1.658 4.307 3.335 6.392 5.089l1.714 1.452c7.123 6.106 13.883 12.991 11.803 23.27-.71 3.518-4.24 5.347-7.48 5.671-.715.072-1.407.078-2.088.054l.276.729c4.482 12.057 7.332 31.304-7.079 29.646 2.256 19.677-9.534 22.604-17.594 12.718 9.497 11.417 26.785 83.671-3.42 70.826-1.331 16.144-4.267 32.506-11.58 47.109l-.212.481c-3.73 8.185-20.158 32.459-25.468 14.693 3.81-22.033 14.681-42.942 16.435-65.521-2.134-.337-3.956-2.425-4.748-4.727-2.299 11.574-7.572 21.925-14.822 31.101a111.619 111.619 0 0 1-3.866 9.142c-4.561 9.604-10.441 18.501-17.17 26.68-3.6 4.377-7.42 8.634-12.12 11.838-3.741 2.548-8.111 4.227-12.321 5.844-6.849 6.916-15.639 12.142-24.229 16.318-14.16 6.864-29.51 10.656-45.04 12.556-15.88 1.93-31.92 1.466-47.67-1.294-15.05-2.628-31.181-9.351-40.45-22.161-.8-1.102.689-2.143 1.669-1.688 26.901 12.587 57.13 15.873 86.451 11.899 13.679-1.85 27.139-5.671 39.63-11.606 10.54-5.004 19.429-12.284 28.889-18.875 1.841-2.477 3.7-4.914 5.821-7.178l3.309-3.508c2.473-2.636 4.901-5.306 7.11-8.19 6.821-8.886 12.47-18.966 16.201-29.571 7.255-20.645 5.293-43.054 4.011-64.568l-.111-1.896a954.88 954.88 0 0 0-5.291-59.546c-1.713-.563-3.355-1.532-4.704-2.725-5.337-33.646-20.722-68.027-46.71-90.722 15.223 21.413 23.86 45.758 25.652 72.259.31 4.604-5.93 4.553-7.387.997-14.465-38.216-21.829-79.44-66.071-94.384-17.56 23.968-25.237 53.068-40.022 78.44-3.743 5.909-11.89 3.077-12.501-3.372-1.721-18.187 5.522-36.239 14.512-52.149l-7.316 8.848c-56.345 68.281-60.95 78.479-54.898 183.078-.551 5.233-7.23 7.72-10.287 2.774-17.169-33.136-9.801-73.843-4.9-109.256a319.589 319.589 0 0 0-5.076 10.596c-1.109-3.625-3.06.403-2.596 5.774-2.98 6.788-5.792 13.773-8.33 20.895.161 22.671 7.625 44.347 7.64 66.984.504 6.32-7.961 7.299-10.994 2.966-2.589-3.699-4.996-7.265-7.088-11.031.299 9.456 4.074 17.85 6.671 26.701 1.773 3.157 2.586 6.441 1.431 9.998l-.118.345c-1.902 5.835-8.867 7.078-13.253 3.084.096 3.693-.23 7.414-1.34 10.895 4.678 6.075 8.98 12.374 12.174 19.365 1.831 4.342-.643 7.96-4.23 9.715 2.996 7.559 4.233 15.381 1.622 22.863-.78 2.254-4.04 3.063-5.311.697-4.17-7.784-6.5-16.358-10.46-24.233a112.47 112.47 0 0 0-2.288-4.301c-4.444-3.813-8.062-8.437-11.485-13.321-12.274 14.583-23.88-16.67-26.077-26.183l-.981-.917c2.379 22.556 15.687 43.186 15.905 65.832-.478 4.718-5.595 9.062-10.31 5.893-16.35-12.35-19.832-34.686-24.362-53.428a7.662 7.662 0 0 1-2.286.701c-.861 12.681 28.403 53.682 4.695 53.744-26.245-13.383-23.272-51.974-26.797-76.993-1.604 7.45-.188 19.689-5.563 25.092 22.805 55.987-15.561 38.13-25.024-3.769-1.149 1.693-2.532 3.23-4.217 4.549-3.446 2.696-8.006 2.609-10.536-1.352-5.208-8.154-3.363-17.828-1.176-26.814-20.233-8.839-28.907-29.292-30.455-50.982a25.017 25.017 0 0 1-1.7 2.266c-2.424 2.846-7.31 1.832-9.042-1.16-5.062-8.749-2.6-19.885 1.651-29.305-1.351-.572-2.553-1.448-3.353-2.602-6.929-11.498-9.067-24.485-8.349-37.674a22.575 22.575 0 0 1-3.087 2.608c-3.422 2.382-7.773-.21-8.945-3.626-3.792-11.05 4.755-22.219 11.956-29.705 2.533-2.632 5.417-5.145 8.562-7.273 1.5-4.154 3.11-8.192 4.761-12.059-2.417-4.895-3.789-10.153-4.343-15.589-2.046 3.355-4.594 6.342-8.289 8.605-3.431 2.102-7.368-.673-7.589-4.337-.666-11.057 8.036-20.787 14.542-28.988l.653-.847c1.15-1.517 2.955-3.951 5.01-6.226.33-.996.673-1.988 1.029-2.973-5.049 2.731-12.837.732-12.395-6.34 1.01-22.927 25.105-34.042 32.092-54.306-35.412 31.741-31.635-9.035-6.726-24.894 1.994-1.669 4.052-3.238 6.139-4.757-2.841-1.796-3.72-5.801-1.102-8.697 7.276-8.05 18.34-9.714 28.71-10.593 3.707-.315 7.329-.35 10.976-.063l.996.087.283-.081c2.411-2.854 5.117-5.473 7.698-7.724-19.607-3.743-1.019-32.42 43.783-21.98a88.4 88.4 0 0 1 7.533-3.386c-6.685-.322-13.35-.931-19.967-2.288-5.897-1.209-6.885-10.107-1.682-12.82 20.803-10.392 44.802-7.826 67.089-2.603-.545-1.029-.8-2.173-.811-3.351-7.384-.716-8.038-12.086.462-12.739 14.262-1.096 27.905 1.678 40.505 7.194a58.275 58.275 0 0 1 4.868-.363c2.376-25.066 35.182-4.278 42.395 7.786 14.298-8.97 29.526-15.81 46.036-19.416z\"/>'))\n        ];\n        return heads[i];\n    }  \n} ",
  "sourcePath": "contracts/Head.sol",
  "type": "contract"
}